:020000041000EA
:1000000000B5324B212058609868022188439860DF
:10001000D860186158612E4B002199600221596106
:100020000121F02299502B49196001219960352056
:1000300000F044F80222904214D00621196600F024
:1000400034F8196E01211966002018661A6600F04E
:100050002CF8196E196E196E052000F02FF8012189
:100060000842F9D1002199601B49196000215960AB
:100070001A491B48016001219960EB211966A021F2
:10008000196600F012F800219960164914480160C1
:100090000121996001BC002800D000471248134993
:1000A000086003C880F30888084703B5996A0420EC
:1000B0000142FBD001200142F8D103BD02B5186610
:1000C0001866FFF7F2FF186E186E02BD00000240BE
:1000D000000000180000070000035F00212200005C
:1000E000F4000018222000A00001001008ED00E03C
:1000F00000000000000000000000000074B24E7A12
:1001000000200420F7010010C3010010C5010010F9
:10011000C1010010C1010010C1010010C101001097
:10012000C1010010C1010010C1010010C701001081
:10013000C1010010C1010010C9010010CB01001065
:10014000CD010010CD010010CD010010CD01001037
:10015000CD010010CD010010CD010010CD01001027
:10016000CD010010CD010010CD010010CD01001017
:10017000CD010010CD010010CD010010CD01001007
:10018000CD010010CD010010CD010010CD010010F7
:10019000CD010010CD010010CD010010CD010010E7
:1001A000CD010010CD010010CD010010CD010010D7
:1001B000CD010010CD010010CD010010CD010010C7
:1001C00000BE00BE00BE00BE00BE00BE00F04BF888
:1001D000103800BEF2EB8871A8AF0010CCAF001051
:1001E0003402001090A31AE700202149086006C8D5
:1001F00081F3088810471F48006800282FD10DA4FC
:100200000ECC002902D000F012F8F9E71A491B4A77
:10021000002000E001C19142FCD1194988471949E9
:1002200088471949884700BEFDE701C901C29A42C3
:10023000FBD37047CCAF0010C0000020A005002009
:10024000ACB400100000042000000420ACB4001086
:1002500000100420001004200000000070470B482C
:1002600005F03AFB0047EFF30580C0B2704700008D
:1002700008ED00E0000000D0A0050020601B002079
:10028000C1410010C52200107D41001057560000EA
:1002900006005250ABB36053D4A700100600525072
:1002A000861C0302E4A70010060052505422A29DAF
:1002B000E8A7001005005250DE65F468ACB40010E9
:1002C000F8B5C04606480749091A8B10C90FC91866
:1002D00010B5491003D0044B002B00D0984710BD37
:1002E000A0050020A005002000000000054B10B56F
:1002F000002B03D00449054800E000BFFFF7E2FFF0
:1003000010BDC04600000000EC1800203898001016
:100310000A4B1B889BB2002B04D0084A1388013B70
:100320009BB21380064B1B889BB2002B04D0044A5F
:100330001388013B9BB213807047C046521B0020BC
:10034000541B0020D0231B065B68DB0305D5D0239C
:100350001B06802252029A617047D0231B0680221E
:1003600052025A61F8E70000F0B583B06B460024F2
:10037000DC71172801D901F04DFE8000CE4B1B58CF
:100380009F466B460220D87126E001294ED0002AF4
:100390006CD16B46D81DDB79C84D5B005E5B047881
:1003A0006036C74BA4011C19A68004786400665B04
:1003B00004786036A4011C19E68004786400645B4C
:1003C000057820006030AD015B1918816B46D81D9F
:1003D000DB790133DBB203706B4607331B78DBB28A
:1003E000052B01D901F016FE0029CED1002ACCD070
:1003F0006B46D81DDB79B14D5B005E5B04784036FF
:10040000AF4BA4011C19A68004786400665B0478D5
:100410004036A4011C19E68004786400645B05780A
:1004200020004030AD015B191881CFE7002AAED023
:100430006B46D81DDB79A14C5B001E5B057820362E
:100440009F4BAD015D19AE8005786D002E5B057880
:100450002036AD015D19EE8005786D002C5B0578C6
:1004600020002030AD015B191881AFE76B46D81D25
:10047000DB79924D5B005E5B04781036904BA401F3
:100480001C19A68004786400665B04781036A40109
:100490001C19E68004786400645B05782000103045
:1004A000AD015B19188191E76B460220D87126E0F7
:1004B00001294ED0012A6CD06B46D81DDB797F4DC7
:1004C0005B005E5B047810367D4BA4011C19E6814D
:1004D00004786400665B04781036A4011C19268237
:1004E00004786400645B057820001030AD015B196E
:1004F00058826B46D81DDB790133DBB203706B4643
:1005000007331B78DBB2052B01D901F083FD0029ED
:10051000CED1012ACCD96B46D81DDB79674D5B0063
:100520005E5B04784036664BA4011C19E6810478B2
:100530006400665B04784036A4011C1926820478A6
:100540006400645B057820004030AD015B1958827F
:10055000CFE7012AAED96B46D81DDB79574D5B003A
:100560005E5B04782036564BA4011C19E6810478A2
:100570006400665B04782036A4011C192682047886
:100580006400645B057820002030AD015B1958825F
:10059000AFE76B46D81DDB79484C5B001E5B0578E6
:1005A0006036474BAD015D19EE8105786D002E5B1D
:1005B00005786036AD015D192E8205786D002C5BE3
:1005C000057820006030AD015B19588291E76B46D9
:1005D0000220D87126E001294ED0022A72D06B4643
:1005E000D81DDB79354D5B005E5B04781036344BEB
:1005F000A4011C19268304786400665B0478103615
:10060000A4011C19668304786400645B05782000EB
:100610001030AD015B1998836B46D81DDB7901332F
:10062000DBB203706B4607331B78DBB2052B01D9B5
:1006300001F0F0FC0029CED1022ACCD96B46D81D9E
:10064000DB791E4D5B005E5B047840361C4BA401D9
:100650001C19268304786400665B04784036A40184
:100660001C19668304786400645B057820004030C0
:10067000AD015B199883CFE7022AAED96B46D81D2E
:10068000DB790E4D5B005E5B047820360C4BA401D9
:100690001C19268304786400665B04782036A40164
:1006A0001C19668304786400645B057820002030A0
:1006B000AD015B199883AFE738980010B49800102B
:1006C000D80600206B46D81DDB79CB4D5B005E5B06
:1006D00004786036C94BA4011C1926830478640091
:1006E000665B04786036A4011C1966830478640094
:1006F000645B057820006030AD015B1998838BE75F
:100700006B460220D87126E001294ED0032A6CD016
:100710006B46D81DDB79B84D5B005E5B0478103604
:10072000B64BA4011C19668404786400665B0478E7
:100730001036A4011C19A68404786400645B057853
:1007400020001030AD015B19D8846B46D81DDB79D1
:100750000133DBB203706B4607331B78DBB2052B2A
:1007600001D901F057FC0029CED1032ACCD96B4620
:10077000D81DDB79A04D5B005E5B047840369F4B53
:10078000A4011C19668404786400665B0478403612
:10079000A4011C19A68404786400645B0578200019
:1007A0004030AD015B19D884CFE7032AAED96B4640
:1007B000D81DDB79904D5B005E5B047820368F4B53
:1007C000A4011C19668404786400665B04782036F2
:1007D000A4011C19A68404786400645B05782000D9
:1007E0002030AD015B19D884AFE76B46D81DDB79AB
:1007F000814D5B005E5B04786036804BA4011C1960
:10080000668404786400665B04786036A4011C1971
:10081000A68404786400645B057820006030AD0134
:100820005B19D88491E76B460220D87126E0012934
:100830004ED0042A6CD06B46D81DDB796E4D5B0020
:100840005E5B047810366D4BA4011C19A6850478F4
:100850006400665B04781036A4011C19E6850478F0
:100860006400645B057820001030AD015B191886C8
:100870006B46D81DDB790133DBB203706B4607335F
:100880001B78DBB2052B01D901F0C4FB0029CED1C6
:10089000042ACCD96B46D81DDB79574D5B005E5BD3
:1008A00004784036554BA4011C19A68504786400D1
:1008B000665B04784036A4011C19E6850478640060
:1008C000645B057820004030AD015B191886CFE7E6
:1008D000042AAED96B46D81DDB79474D5B005E5BC1
:1008E00004782036454BA4011C19A68504786400C1
:1008F000665B04782036A4011C19E6850478640040
:10090000645B057820002030AD015B191886AFE7E5
:100910006B46D81DDB79384D5B005E5B0478603632
:10092000364BA4011C19A68504786400665B047824
:100930006036A4011C19E68504786400645B0578C0
:1009400020006030AD015B19188691E76B460220EC
:10095000D87126E0012953D0052A71D06B46D81DE5
:10096000DB79254D5B005E5B04781036234BA401D8
:100970001C19E68604786400665B04781036A401CE
:100980001C19268704786400645B05782000103009
:10099000AD015B1958876B46D81DDB790133DBB29B
:1009A00003706B4607331B78DBB2052B01D901F0CE
:1009B00031FB0029CED1052ACCD96B46D81DDB7975
:1009C0000D4D5B005E5B047840360C4BA4011C1996
:1009D000E68604786400665B04784036A4011C193E
:1009E000268704786400645B057820004030AD0100
:1009F0005B195887CFE7C046B4980010D80600208E
:100A0000052AA9D96B46D81DDB79B14D5B005E5B29
:100A100004782036AF4BA4011C19E68604786400E4
:100A2000665B04782036A4011C19268704786400CC
:100A3000645B057820002030AD015B195887AAE778
:100A40006B46D81DDB79A24D5B005E5B0478603697
:100A5000A04BA4011C19E68604786400665B047848
:100A60006036A4011C19268704786400645B05784D
:100A700020006030AD015B1958878CE76B46092078
:100A8000D87126E001294ED0062A6CD06B46D81DBD
:100A9000DB798F4D5B005E5B047810368D4BA401D3
:100AA0001C19A68004786400665B04781036A401E3
:100AB0001C19E68004786400645B0578200010301F
:100AC000AD015B1918816B46D81DDB790133DBB2B0
:100AD00003706B4607331B78DBB20C2B01D901F096
:100AE00099FA0029CED1062ACCD96B46D81DDB79DC
:100AF000774D5B005E5B04784036764BA4011C1991
:100B0000A68004786400665B04784036A4011C1952
:100B1000E68004786400645B057820004030AD0115
:100B20005B191881CFE7062AAED96B46D81DDB7951
:100B3000674D5B005E5B04782036664BA4011C1990
:100B4000A68004786400665B04782036A4011C1932
:100B5000E68004786400645B057820002030AD01F5
:100B60005B191881AFE76B46D81DDB79584D5B00E8
:100B70005E5B04786036574BA4011C19A68004788C
:100B80006400665B04786036A4011C19E680047872
:100B90006400645B057820006030AD015B1918814A
:100BA00091E76B460920D87126E001294ED0072A2B
:100BB0006CD06B46D81DDB79454D5B005E5B0478DD
:100BC0001036444BA4011C19E68104786400665B6E
:100BD00004781036A4011C19268204786400645B32
:100BE000057820001030AD015B1958826B46D81D86
:100BF000DB790133DBB203706B4607331B78DBB262
:100C00000C2B01D901F006FA0029CED1072ACCD944
:100C10006B46D81DDB792E4D5B005E5B0478403659
:100C20002C4BA4011C19E68104786400665B0478EF
:100C30004036A4011C19268204786400645B0578A0
:100C400020004030AD015B195882CFE7072AAED9AA
:100C50006B46D81DDB791E4D5B005E5B0478203649
:100C60001C4BA4011C19E68104786400665B0478BF
:100C70002036A4011C19268204786400645B057880
:100C800020002030AD015B195882AFE76B46D81DBC
:100C9000DB790F4D5B005E5B047860360D4BA40181
:100CA0001C19E68104786400665B04786036A40150
:100CB0001C19268204786400645B0578200060308B
:100CC000AD015B19588291E76B460920D8712AE083
:100CD000B4980010D806002001294ED0082A6CD004
:100CE0006B46D81DDB79D94D5B005E5B047810360E
:100CF000D74BA4011C19268304786400665B047832
:100D00001036A4011C19668304786400645B0578BE
:100D100020001030AD015B1998836B46D81DDB793C
:100D20000133DBB203706B4607331B78DBB20C2B4D
:100D300001D901F06FF90029CED1082ACCD96B4630
:100D4000D81DDB79C14D5B005E5B04784036C04B3B
:100D5000A4011C19268304786400665B047840367D
:100D6000A4011C19668304786400645B0578200084
:100D70004030AD015B199883CFE7082AAED96B46A6
:100D8000D81DDB79B14D5B005E5B04782036B04B3B
:100D9000A4011C19268304786400665B047820365D
:100DA000A4011C19668304786400645B0578200044
:100DB0002030AD015B199883AFE76B46D81DDB7916
:100DC000A24D5B005E5B04786036A14BA4011C1948
:100DD000268304786400665B04786036A4011C19DD
:100DE000668304786400645B057820006030AD01A0
:100DF0005B19988391E76B460920D87126E0012999
:100E00004ED0092A6CD06B46D81DDB798F4D5B0024
:100E10005E5B047810368E4BA4011C19668404783E
:100E20006400665B04781036A4011C19A68404785B
:100E30006400645B057820001030AD015B19D88434
:100E40006B46D81DDB790133DBB203706B46073389
:100E50001B78DBB20C2B01D901F0DCF80029CED1D4
:100E6000092ACCD96B46D81DDB79784D5B005E5BD7
:100E700004784036764BA4011C196684047864001B
:100E8000665B04784036A4011C19A68404786400CB
:100E9000645B057820004030AD015B19D884CFE752
:100EA000092AAED96B46D81DDB79684D5B005E5BC5
:100EB00004782036664BA4011C196684047864000B
:100EC000665B04782036A4011C19A68404786400AB
:100ED000645B057820002030AD015B19D884AFE752
:100EE0006B46D81DDB79594D5B005E5B047860363C
:100EF000574BA4011C19668404786400665B04786F
:100F00006036A4011C19A68404786400645B05782B
:100F100020006030AD015B19D88491E76B46092051
:100F2000D87126E001294ED00A2A6CD06B46D81D14
:100F3000DB79464D5B005E5B04781036444BA401C0
:100F40001C19A68504786400665B04781036A40139
:100F50001C19E68504786400645B05782000103075
:100F6000AD015B1918866B46D81DDB790133DBB206
:100F700003706B4607331B78DBB20C2B01D901F0F1
:100F800049F80029CED10A2ACCD96B46D81DDB7985
:100F90002E4D5B005E5B047840362D4BA4011C197E
:100FA000A68504786400665B04784036A4011C19A9
:100FB000E68504786400645B057820004030AD016C
:100FC0005B191886CFE70A2AAED96B46D81DDB79A4
:100FD0001E4D5B005E5B047820361D4BA4011C197E
:100FE000A68504786400665B04782036A4011C1989
:100FF000E68504786400645B057820002030AD014C
:101000005B191886AFE76B46D81DDB790F4D5B0087
:101010005E5B047860360E4BA4011C19A68504782B
:101020006400665B04786036A4011C19E6850478C8
:101030006400645B057820006030AD015B191886A0
:1010400091E76B460920D8712BE0C046B498001098
:10105000D806002001294ED00B2A6CD06B46D81D33
:10106000DB79CF4D5B005E5B04781036CD4BA4017D
:101070001C19E68604786400665B04781036A401C7
:101080001C19268704786400645B05782000103002
:10109000AD015B1958876B46D81DDB790133DBB294
:1010A00003706B4607331B78DBB20C2B01D900F0C1
:1010B000B1FF0029CED10B2ACCD96B46D81DDB79E4
:1010C000B74D5B005E5B04784036B64BA4011C193B
:1010D000E68604786400665B04784036A4011C1937
:1010E000268704786400645B057820004030AD01F9
:1010F0005B195887CFE70B2AAED96B46D81DDB7931
:10110000A74D5B005E5B04782036A64BA4011C193A
:10111000E68604786400665B04782036A4011C1916
:10112000268704786400645B057820002030AD01D8
:101130005B195887AFE76B46D81DDB79984D5B008C
:101140005E5B04786036974BA4011C19E686047830
:101150006400665B04786036A4011C192687047855
:101160006400645B057820006030AD015B1958872E
:1011700091E76B461020D87126E0012951D00C2A46
:1011800071D06B46D81DDB79854D5B005E5B0478C2
:101190008036844BA4011C19A68004786400665B29
:1011A00004788036A4011C19E68004786400645B2E
:1011B000057820008030AD015B1918816B46D81D81
:1011C000DB790133DBB203706B4607331B78DBB28C
:1011D000132B01D900F01EFF0029CED10C2ACCD947
:1011E0006B46D81DDB796E4D5B005E5B0478802317
:1011F0009B009C4666446B4BA4011C19A680047896
:101200006400665B047867466644A4011C19E680A6
:1012100004786400645B0578E019AD015B191881FE
:10122000CCE70C2AABD96B46D81DDB795C4D5B0053
:101230005E5B04780136FF365A4BA4011C19A68068
:1012400004786400665B04780136FF36A4011C193B
:10125000E68004786400645B0578601CFF30AD01B3
:101260005B191881AAE76B46D81DDB794C4D5B00F2
:101270005E5B0478C0239B009C466644494BA401F6
:101280001C19A68004786400665B0478674666448F
:10129000A4011C19E68004786400645B0578E019F9
:1012A000AD015B19188189E76B461020D87127E0E2
:1012B000012952D00D2A00D176E06B46D81DDB798A
:1012C000374D5B005E5B04788036364BA4011C19F9
:1012D000E68104786400665B04788036A4011C19FA
:1012E000268204786400645B057820008030AD01BC
:1012F0005B1958826B46D81DDB790133DBB2037072
:101300006B4607331B78DBB2132B01D900F082FE4A
:101310000029CDD10D2ACBD96B46D81DDB79204DC4
:101320005B005E5B047880239B009C4666441D4BFB
:10133000A4011C19E68104786400665B04786746A2
:101340006644A4011C19268204786400645B057855
:10135000E019AD015B195882CCE70D2AAAD96B467A
:10136000D81DDB790E4D5B005E5B04780136FF36DD
:101370000C4BA4011C19E68104786400665B0478B8
:101380000136FF36A4011C19268204786400645BD0
:101390000578601CFF30AD015B195882AAE7C04692
:1013A000B4980010D80600206B46D81DDB79D64DC6
:1013B0005B005E5B0478C0239B009C466644D34B75
:1013C000A4011C19E68104786400665B0478674612
:1013D0006644A4011C19268204786400645B0578C5
:1013E000E019AD015B19588284E76B461020D87173
:1013F00026E0012951D00E2A71D06B46D81DDB7929
:10140000C14D5B005E5B04788036C04BA4011C19A3
:10141000268304786400665B04788036A4011C1976
:10142000668304786400645B057820008030AD0139
:101430005B1998836B46D81DDB790133DBB20370EF
:101440006B4607331B78DBB2132B01D900F0E2FDAA
:101450000029CED10E2ACCD96B46D81DDB79AA4DF6
:101460005B005E5B047880239B009C466644A74B30
:10147000A4011C19268304786400665B047867461F
:101480006644A4011C19668304786400645B0578D3
:10149000E019AD015B199883CCE70E2AABD96B46F6
:1014A000D81DDB79984D5B005E5B04780136FF3612
:1014B000964BA4011C19268304786400665B0478AB
:1014C0000136FF36A4011C19668304786400645B4E
:1014D0000578601CFF30AD015B199883AAE76B4665
:1014E000D81DDB79884D5B005E5B0478C0239B00D0
:1014F0009C466644854BA4011C192683047864002D
:10150000665B047867466644A4011C196683047808
:101510006400645B0578E019AD015B19988389E785
:101520006B461020D87126E0012951D00F2A71D0C6
:101530006B46D81DDB79744D5B005E5B04788036AA
:10154000724BA4011C19668404786400665B0478FD
:101550008036A4011C19A68404786400645B0578B5
:1015600020008030AD015B19D8846B46D81DDB7933
:101570000133DBB203706B4607331B78DBB2132BEE
:1015800001D900F047FD0029CED10F2ACCD96B46F6
:10159000D81DDB795C4D5B005E5B047880239B008B
:1015A0009C466644594BA4011C1966840478640067
:1015B000665B047867466644A4011C19A684047817
:1015C0006400645B0578E019AD015B19D884CCE751
:1015D0000F2AABD96B46D81DDB794B4D5B005E5BA8
:1015E00004780136FF36494BA4011C19668404783F
:1015F0006400665B04780136FF36A4011C19A684DA
:1016000004786400645B0578601CFF30AD015B19F1
:10161000D884AAE76B46D81DDB793B4D5B005E5B47
:101620000478C0239B009C466644384BA4011C19D7
:10163000668404786400665B047867466644A401A7
:101640001C19A68404786400645B0578E019AD0178
:101650005B19D88489E76B461020D87127E00129EF
:1016600056D0102A00D175E06B46D81DDB79264D87
:101670005B005E5B04788036244BA4011C19A685B0
:1016800004786400665B04788036A4011C19E68542
:1016900004786400645B057820008030AD015B193C
:1016A00018866B46D81DDB790133DBB203706B46BD
:1016B00007331B78DBB2132B01D900F0ABFC0029F8
:1016C000CDD1102ACBD96B46D81DDB790E4D5B00EE
:1016D0005E5B047880239B009C4666440B4BA40110
:1016E0001C19A68504786400665B04786746664426
:1016F000A4011C19E68504786400645B0578E01990
:10170000AD015B191886CCE7B4980010D80600200C
:10171000102AA6D96B46D81DDB79BB4D5B005E5BFA
:1017200004780136FF36B94BA4011C19A68504784C
:101730006400665B04780136FF36A4011C19E68557
:1017400004786400645B0578601CFF30AD015B19B0
:101750001886A6E76B46D81DDB79AB4D5B005E5B58
:101760000478C0239B009C466644A84BA4011C1926
:10177000A68504786400665B047867466644A40125
:101780001C19E68504786400645B0578E019AD01F6
:101790005B19188685E76B461020D87126E0012971
:1017A00051D0112A71D06B46D81DDB79964D5B0064
:1017B0005E5B04788036954BA4011C19E68604789C
:1017C0006400665B04788036A4011C1926870478BF
:1017D0006400645B057820008030AD015B19588798
:1017E0006B46D81DDB790133DBB203706B460733E0
:1017F0001B78DBB2132B01D900F00CFC0029CED1F1
:10180000112ACCD96B46D81DDB797F4D5B005E5B1E
:10181000047880239B009C4666447C4BA4011C19E1
:10182000E68604786400665B047867466644A40133
:101830001C19268704786400645B0578E019AD0103
:101840005B195887CCE7112AABD96B46D81DDB79D9
:101850006D4D5B005E5B04780136FF366B4BA40177
:101860001C19E68604786400665B04780136FF364E
:10187000A4011C19268704786400645B0578601C49
:10188000FF30AD015B195887AAE76B46D81DDB799D
:101890005D4D5B005E5B0478C0239B009C46664404
:1018A0005A4BA4011C19E68604786400665B047830
:1018B00067466644A4011C19268704786400645BAB
:1018C0000578E019AD015B19588789E76B46172049
:1018D000D87126E0012950D0122A70D06B46D81D4D
:1018E000DB79494D5B005E5B04788036474BA40191
:1018F0001C19A68004786400665B04788036A40115
:101900001C19E68004786400645B05782000803050
:10191000AD015B1918816B46D81DDB790133DBB251
:1019200003706B4607331B78DBB21A2B00D971E3C7
:101930000029CFD1122ACDD96B46D81DDB79324D83
:101940005B005E5B047880239B009C4666442F4BC3
:10195000A4011C19A68004786400665B04786746BD
:101960006644A4011C19E68004786400645B057871
:10197000E019AD015B191881CDE7122AACD96B468D
:10198000D81DDB79204D5B005E5B04780136FF36A5
:101990001E4BA4011C19A68004786400665B0478C1
:1019A0000136FF36A4011C19E68004786400645BEC
:1019B0000578601CFF30AD015B191881ABE76B4601
:1019C000D81DDB79104D5B005E5B0478C0239B0063
:1019D0009C4666440D4BA4011C19A6800478640043
:1019E000665B047867466644A4011C19E6800478A7
:1019F0006400645B0578E019AD015B1918818AE722
:101A00006B461720D8712AE0B4980010D806002041
:101A1000012950D0132A70D06B46D81DDB79D14DE7
:101A20005B005E5B04788036CF4BA4011C19E68115
:101A300004786400665B04788036A4011C19268251
:101A400004786400645B057820008030AD015B1988
:101A500058826B46D81DDB790133DBB203706B46CD
:101A600007331B78DBB21A2B00D9D3E20029CFD180
:101A7000132ACDD96B46D81DDB79BA4D5B005E5B6E
:101A8000047880239B009C466644B74BA4011C1934
:101A9000E68104786400665B047867466644A401C6
:101AA0001C19268204786400645B0578E019AD0196
:101AB0005B195882CDE7132AACD96B46D81DDB7968
:101AC000A84D5B005E5B04780136FF36A64BA4018F
:101AD0001C19E68104786400665B04780136FF36E1
:101AE000A4011C19268204786400645B0578601CDC
:101AF000FF30AD015B195882ABE76B46D81DDB792F
:101B0000984D5B005E5B0478C0239B009C46664456
:101B1000954BA4011C19E68104786400665B047887
:101B200067466644A4011C19268204786400645B3D
:101B30000578E019AD015B1958828AE76B461720DA
:101B4000D87126E0012950D0142A70D06B46D81DD8
:101B5000DB79844D5B005E5B04788036824BA401A8
:101B60001C19268304786400665B04788036A4011F
:101B70001C19668304786400645B0578200080305B
:101B8000AD015B1998836B46D81DDB790133DBB25D
:101B900003706B4607331B78DBB21A2B00D939E28E
:101BA0000029CFD1142ACDD96B46D81DDB796D4DD4
:101BB0005B005E5B047880239B009C4666446A4B16
:101BC000A4011C19268304786400665B04786746C8
:101BD0006644A4011C19668304786400645B05787C
:101BE000E019AD015B199883CDE7142AACD96B4697
:101BF000D81DDB795B4D5B005E5B04780136FF36F8
:101C0000594BA4011C19268304786400665B047890
:101C10000136FF36A4011C19668304786400645BF6
:101C20000578601CFF30AD015B199883ABE76B460C
:101C3000D81DDB794B4D5B005E5B0478C0239B00B5
:101C40009C466644484BA4011C1926830478640012
:101C5000665B047867466644A4011C1966830478B1
:101C60006400645B0578E019AD015B1998838AE72D
:101C70006B461720D87127E0012951D0152A00D1D1
:101C800074E06B46D81DDB79364D5B005E5B0478F3
:101C90008036354BA4011C19668404786400665BA9
:101CA00004788036A4011C19A68404786400645B5F
:101CB000057820008030AD015B19D8846B46D81DB3
:101CC000DB790133DBB203706B4607331B78DBB281
:101CD0001A2B00D99EE10029CED1152ACCD96B460A
:101CE000D81DDB791F4D5B005E5B047880239B0071
:101CF0009C4666441C4BA4011C196684047864004D
:101D0000665B047867466644A4011C19A6840478BF
:101D10006400645B0578E019AD015B19D884CDE7F8
:101D2000152AABD96B46D81DDB790E4D5B005E5B87
:101D300004780136FF360C4BA4011C196684047824
:101D40006400665B04780136FF36A4011C19A68482
:101D500004786400645B0578601CFF30AD015B199A
:101D6000D884ABE7B4980010D80600206B46D81D85
:101D7000DB79A94D5B005E5B0478C0239B009C4629
:101D80006644A64BA4011C19668404786400665B53
:101D9000047867466644A4011C19A684047864008C
:101DA000645B0578E019AD015B19D88486E76B4662
:101DB0001720D87126E0012950D0162A70D06B4622
:101DC000D81DDB79944D5B005E5B04788036934BC5
:101DD000A4011C19A68504786400665B047880362B
:101DE000A4011C19E68504786400645B0578200072
:101DF0008030AD015B1918866B46D81DDB79013345
:101E0000DBB203706B4607331B78DBB21A2B00D9A9
:101E100000E10029CFD1162ACDD96B46D81DDB7938
:101E20007D4D5B005E5B047880239B009C4666448E
:101E30007A4BA4011C19A68504786400665B0478BB
:101E400067466644A4011C19E68504786400645B57
:101E50000578E019AD015B191886CDE7162AACD9D3
:101E60006B46D81DDB796C4D5B005E5B04780136F8
:101E7000FF366A4BA4011C19A68504786400665BD2
:101E800004780136FF36A4011C19E6850478640045
:101E9000645B0578601CFF30AD015B191886ABE709
:101EA0006B46D81DDB795C4D5B005E5B0478C0231C
:101EB0009B009C466644594BA4011C19A6850478D6
:101EC0006400665B047867466644A4011C19E685D5
:101ED00004786400645B0578E019AD015B1918862D
:101EE0008AE76B461720D87126E001294FD0172AC0
:101EF0006FD06B46D81DDB79474D5B005E5B047885
:101F00008036464BA4011C19E68604786400665BA3
:101F100004788036A4011C19268704786400645B69
:101F2000057820008030AD015B1958876B46D81DBD
:101F3000DB790133DBB203706B4607331B78DBB20E
:101F40001A2B67D80029D0D1172ACED96B46D81DB5
:101F5000DB79314D5B005E5B047880239B009C46FF
:101F600066442E4BA4011C19E68604786400665B67
:101F7000047867466644A4011C1926870478640027
:101F8000645B0578E019AD015B195887CEE7172A25
:101F9000ADD96B46D81DDB791F4D5B005E5B0478C5
:101FA0000136FF361D4BA4011C19E6860478640037
:101FB000665B04780136FF36A4011C192687047875
:101FC0006400645B0578601CFF30AD015B195887C5
:101FD000ACE76B46D81DDB790F4D5B005E5B047888
:101FE000C0239B009C4666440C4BA4011C19E6864A
:101FF00004786400665B047867466644A4011C1993
:10200000268704786400645B0578E019AD015B19EC
:1020100058878BE703B0F0BDB4980010D8060020B5
:1020200030B583B000236A46D3716A4693719371C9
:1020300012E1D0231B06802252009A615BE0D0237C
:102040001B0680229A6166E0D0231B068022920044
:102050009A6171E0D0231B06802212019A617DE013
:10206000D0231B068022D2009A6189E0D0231B0670
:10207000802252019A6195E0D0231B0680225205EE
:102080009A61A1E0D0231B06802292059A61ADE0FF
:10209000D0231B06802252049A61B9E0D0231B068C
:1020A000802292049A61D02424068025AD016561C6
:1020B0000120002101F06EFCA5616B46DA1DDB7981
:1020C0000133DBB213706B4607331B78DBB21F2B77
:1020D00000D9B0E06B4699796B4607331B78674AA5
:1020E00049015B185B009B5A5B06A2D5D0231B06F7
:1020F000802252005A616B4699796B4607331B78F0
:102100005E4A49015B185B009B5A9B0697D5D0231A
:102110001B0680225A616B4699796B4607331B7800
:10212000564A49015B185B009B5ADB068CD5D023CD
:102130001B06802292005A616B4699796B460733E1
:102140001B784E4A49015B185B009B5A9B0500D4E3
:1021500080E7D0231B06802212015A616B469979D1
:102160006B4607331B78454A49015B185B009B5A55
:10217000DB0500D474E7D0231B068022D2005A610D
:102180006B4699796B4607331B783C4A49015B18CB
:102190005B009B5A1B0600D468E7D0231B068022F5
:1021A00052015A616B4699796B4607331B78334A63
:1021B00049015B185B009B5A1B0700D45CE7D023E6
:1021C0001B06802252055A616B4699796B4607338C
:1021D0001B782A4A49015B185B009B5A5B0700D4B5
:1021E00050E7D0231B06802292055A616B469979ED
:1021F0006B4607331B78214A49015B185B009B5AE9
:102200009B0700D444E7D0231B06802252045A6166
:102210006B4699796B4607331B78184A49015B185E
:102220005B009B5ADB0700D438E7D0231B068022D3
:1022300092045A6137E7D0231B0640229A613F3A45
:102240009A61E1204000002101F0A4FB6B469A1D39
:102250009B790133DBB213706B4606331B78DBB21C
:102260001F2B09D8D0231B0601225A613F325A6125
:102270006B460022DA7126E703B030BDD806002095
:10228000F0B5C64600B584B004000E0017001D006E
:1022900001F06EF98046E117FA2292000023200037
:1022A00004F0B2F902000B00029501970096404637
:1022B00001F0A6FA04B080BCB846F0BD10B502F03B
:1022C000C3F910BDF0B5DE4657464E464546E0B56B
:1022D00085B001AADD4B180018C818C20388138006
:1022E0008378937000256B46DD706B469E1C9D7055
:1022F00004F09AFBFA200121400102F0EBF91920C9
:1023000000F0D6F9182000F0D3F91D2000F0D0F924
:102310001C2000F0CDF9092000F0CAF90C2000F0D3
:10232000C7F9072000F0C4F90A2000F0C1F9102015
:1023300000F0BEF9082000F0BBF90B2000F0B8F95E
:102340000D2000F0B5F9062000F0B2F9002000F0F1
:10235000AFF91A2000F0ACF91B2000F0A9F9032016
:1023600000F0A6F9022000F0A3F9D024240680236F
:102370009B049A46636280235B04994663628023D0
:102380009B059846636280277F05676280239B00D8
:102390006362802252016262802161628020C000FB
:1023A000606280235B02636280225200626280214D
:1023B0000901616280239B016362402363623F3BAA
:1023C00063628023DB04A36280231B05A3620823CE
:1023D000A36204208346A0629D499E4807F07EF9CF
:1023E0009D4B584618600121033800F049F901213E
:1023F000142000F045F90121132000F041F90121DA
:10240000122000F03DF9954B9549FA20002240003A
:10241000FFF736FF934B944900220120FFF730FF6E
:102420005046A0614846A0614046A061A761802354
:102430009B00A36180225201A2618021A1618020C2
:10244000C000A06180235B02A36180225200A261D0
:1024500080210901A16135701FE0D0242406802568
:10246000AD0165610120002101F094FAA561012010
:10247000002101F08FFA6B46DA1CDB780133DBB206
:1024800013706B4603331B78DBB21F2BE5D96B4609
:102490009A1C9B780133DBB213706B4602331B78B6
:1024A000DBB21F2B03D86B460022DA70E9E76B46DC
:1024B00000229A7034E06B46987899786B46033323
:1024C0001B786A4A4000805A694A49015B185B00E0
:1024D00098526B46DA1CDB780133DBB213706B4623
:1024E00003331B78DBB21F2B14D86B4602331B78E7
:1024F000DBB20F2BDFD86B46987899786B460333A5
:102500001B785A4A4000805A594A49015B185B00BF
:102510009852DEE76B469A1C9B780133DBB213704E
:102520006B4602331B78DBB21F2B03D86B460022AD
:10253000DA70D4E7D0231B06802292019A614022F0
:102540009A613F3A5A61002500261CE049480B2257
:10255000002104F013F955236A46137154710222C5
:1025600001A93C4807F050F9434BFA2252001A8067
:102570006B460022DA706B4603331B78DBB2172BF5
:1025800051D9FFF74DFDFFF799FED022120654688E
:10259000A40801210C40E4005368DB080B409B00B9
:1025A000E4185368DB0E0B405B00E41853689B0E85
:1025B00019406418304B1B889BB2002B01D1002CB2
:1025C000C4D12E4B1B889BB2002BD1D1002CCFD174
:1025D000284C0B220021200004F0D0F80B2200210F
:1025E00001A804F0CBF855236A461371453B53719B
:1025F000053B220001A9174807F00EF91F4BFA22EC
:1026000052001A802379552BB2D11A4B5B79102BCB
:10261000AED1184BDD792D041A7A1202AD185A7A10
:10262000AD189E7AA4E76B46DC1CDB78DBB2290090
:10263000D940012319402078C0B23200FDF794FE42
:1026400023780133DBB2237095E7C046A8980010C9
:10265000A086010000C0034004F00340C006002033
:1026600045030010A806002011030010B4980010C4
:10267000D8060020D80E0020541B0020521B00203A
:1026800010B58300084A944663441A6840246240A7
:10269000803414408022520113431C60C000034B5D
:1026A0009C466044416010BD04C0014000400140B0
:1026B00010B501238340D022120693629361052155
:1026C000FFF7DEFF10BD0000EFF3108072B6034B82
:1026D0001B68002BFBD0BFF35F8F70472C0100D02D
:1026E000BFF35F8F024B00221A6080F3108870479F
:1026F0002C0100D0F8B506000C001500FFF7E4FF30
:10270000E308F718F15C07222240012393400B42B3
:1027100005D1DBB20B433B70FFF7E2FFF8BD2100B0
:10272000280001F0C9FDF0B583B006000191140046
:102730001F00FFF7C9FF00E00134BC420CD8E308DA
:10274000F518F35C0721214001228A401A42F3D197
:10275000D2B21A432A7001E001246442FFF7C0FF9D
:10276000002C02DB200003B0F0BD019B002BF9D050
:10277000089801F0A1FD0000034B1B6802201840DF
:10278000431E9841C0B2704700C00640002307E0D6
:10279000054A9A189200BFF35F8F00211160013340
:1027A0001F2BF5D97047C04640000034054A107809
:1027B000431CDBB21370172B02D9130010221A70BE
:1027C0007047C046A004002010B582B00100054C3F
:1027D000054B00931F2318222000FFF7A4FF02B02F
:1027E00010BDC0464814002000990010074B9B689C
:1027F000103080001950BFF35F8FBFF35F8F044B21
:102800000021196082F310887047C04600ED00E097
:10281000240100D010B5091A0B1F0A4A94466144DE
:10282000094A914208D8DA0706D45B105B055B0DB4
:102830000648184380B210BD054B064A0648992148
:1028400001F0A0FCFC070000FE0F000000E0FFFF0D
:102850001C9900107C9B00104C99001010B5091AAF
:1028600004394A08090B08D14905490D064B0B43A9
:102870000380064B1343438010BD054B054A0648B1
:10288000A12101F07FFCC04600F0FFFF00F8FFFF30
:102890008C990010509B00104C990010012383402C
:1028A000034A10681840431E9841C0B27047C046A2
:1028B00000E100E0002904D0034B1860034B1860CE
:1028C0007047034B1860FBE780E200E000E100E0A6
:1028D00080E100E010B5012383401800FFF7EAFF14
:1028E00010BD000001238340014A13607047C046B9
:1028F00000E200E0024B9B6810308000C058704737
:1029000000ED00E010B5FFF7F5FF002805D0054BFE
:10291000C01A2F2803D8012010BD0020FCE700209A
:10292000FAE7C046A404002070B504000D00EFF3E0
:10293000108672B60C4B1B68002BFBD0BFF35F8F69
:102940002000FFF7D7FF094B984201D0A84205D1DC
:10295000320029002000FFF749FF70BD044B054AF3
:1029600005487C2101F00EFC240100D0CD010010AF
:102970009C990010B09B00104C990010F0B5DE46F9
:1029800057464E464546E0B589B08146019115004F
:10299000EFF3108A72B6744B1B68002BFBD0BFF3A9
:1029A0005F8F724B0027DF57002F40DB7C00E4195C
:1029B000A4006F4824180622A2566C4B1A706D4B67
:1029C0009A684B4610339B00D35898461E00181A3D
:1029D0002F2838D9684B98452FD105AE674B3380E7
:1029E00067497B009B46D8198000614B984640445C
:1029F0000230FFF70FFF7080624BB380FF23B3718B
:102A0000F571019B07935F44BB00434407CE07C3A6
:102A100001231C43A046524641464846FFF7E6FEC6
:102A200009B0F0BCBB46B246A946A046F0BD564B25
:102A3000564A5748CD2101F0A5FB564B534A5448FE
:102A4000D42101F09FFB01380C2102F099FF0029ED
:102A500012D101239E43B34633000026DA79AA42FD
:102A600011D90621595600290CDB4A005218920050
:102A70003F491E008B18F1E7474B444A4448E02188
:102A800001F080FB1E00002E3BD005AB434A1A80AC
:102A9000813A5A800623F3560293002B18DABD20A0
:102AA000000205AB9B469880029A9A71DD71019AEB
:102AB0000792301D2100FFF7ADFEB080B7712C4B9F
:102AC0007A00D21992009B185A4613CA13C3A2E780
:102AD0007800C0198000264BC0180430311DB3881F
:102AE000DA0A1C2A07D15B055B1502335B00C918A3
:102AF000FFF790FED5E72A4B2A4A2548A72101F087
:102B000041FB05AE1D4B33801D497B000293DB1951
:102B10009B00174A90461A0042440392901CFFF70C
:102B200079FE7080039A101D5946FFF773FEB0803E
:102B30001D4B5A464146521A524153431B0DB37125
:102B4000F571019A0792029B9C466744BB0043447F
:102B500007CE07C3114B5A461380813B5380012394
:102B60001C43A04657E7C046240100D05A1B002052
:102B7000A404002000ED00E0CD01001000A1FFFF43
:102B8000D404002000BDFFFFD4990010989B0010D2
:102B90004C990010FC990010249A00100148000084
:102BA000989A0010889B0010AAAA0000F0B5CE46A3
:102BB000474680B583B006000D00EFF3108872B66B
:102BC000554B1B68002BFBD0BFF35F8F534B9A68AC
:102BD00034001034A300D758514B9F4207D0AF4266
:102BE00000D197E001974F4BFB1A2F2B09D9424692
:102BF00039003000FFF7FAFD03B0C0BCB946B0465B
:102C0000F0BD3000FFF74AFE814600213000FFF79B
:102C100061FEBFF35F8FFDF726FB002801D08442E1
:102C200011D10123019C9C430021A368AB4212D027
:102C30000622A256002A0DDB53009B189B00394A3E
:102C40002100D418F1E7384B384A2C213848FF319D
:102C500001F098FA2100AB4255D106256557002DA9
:102C600037DB304B6A00521992009B189A68A260B9
:102C7000DA79E2719B795BB2A371002B10DABD2087
:102C80000002A080274B6A00521992009B18294A23
:102C900011789971157049463000FFF71BFEA6E7C1
:102CA000201D6B005B199B001E4A9B18191D9B88F9
:102CB000DA0A1C2A07D15B055B1502335B00C918D1
:102CC000FFF7A8FDDDE71C4B1C4A1948A72101F0BE
:102CD00059FA002812D100290ED0FF238B71184B0E
:102CE0008B8014490B78A3710E4A164BA41A6441C9
:102CF00063431B0D0B70CEE7094FF2E71249201D0D
:102D0000FFF7ACFDC7E7114B084A60210848FF31C7
:102D100001F038FA024F6AE7240100D000ED00E02C
:102D2000CD010010A4040020B09A0010689B001090
:102D30004C9900105A1B0020989A0010889B001094
:102D400000BDFFFFAAAA0000DE040020D49A0010F4
:102D500070B50400012606432D4BF31A2F2B28D8FB
:102D6000FDF781FA00282BD0EFF3108C72B6294BB7
:102D70001B68002BFBD0BFF35F8F254A264D210037
:102D8000891A49414D432D0D6DB2244B9B6880003B
:102D90001B58B3421BD00021032932D81C4B4A00D8
:102DA000521892009B189B795BB2AB421FD0013145
:102DB000F2E71B4B1B4AC2211B48490001F0E2F914
:102DC0001A4B184A88211848FF3101F0DBF9134BE0
:102DD0009B68174A1A50174B1A78A2711D70BFF3DF
:102DE0005F8F0C4B00221A608CF3108870BD084B6B
:102DF0004A00501880001818FF2686710E4A8280FB
:102E0000E9E70E4B074ACC210748490001F0BAF91F
:102E1000A4040020240100D0AAAA000000ED00E0D4
:102E2000DC9A0010349B00104C990010049B001099
:102E3000CD0100105A1B002000BDFFFF109B0010A9
:102E40000022044B02E0044902C30132072AFAD9E6
:102E50007047C04600E400E08080808000B583B009
:102E60000100D0231B061B680648C018064B0093C0
:102E700005230022FFF757FC002801DB1F23181A47
:102E800003B000BD501B0020189B0010024B9C4655
:102E900061448900016070474000003410B50C00A7
:102EA000CB68834207D10B6908009847002809D0F6
:102EB0002068616810BD064B064A96210648490005
:102EC00001F060F90023E36000200021F2E7C04632
:102ED000CC9B0010909E0010E09B001070B5050088
:102EE0000C00080000F006FE200000F0EBFE084990
:102EF000200000F02BFEFFF759FC064B9C46604477
:102F0000800068602C75044BA400E55070BDC0467D
:102F10001132001040000034041900200A4B1A68D6
:102F2000EFF3108172B61368002BFCD0BFF35F8FF4
:102F3000054B1B68BFF35F8F00221A6081F3108876
:102F400040BF002000217047201B002010B5002941
:102F500020D003681B7B99421CD88368154CA4467B
:102F6000614409015B181C685968002A18D003687D
:102F70001B7B9A4214D883680E488446624412012F
:102F80009B181A685B6801208B4201D80ED0002084
:102F9000C0B210BD084B094A09483B2101F0F2F8C4
:102FA000054B064A06483B2101F0ECF8A242EFD857
:102FB000EDE7C046FFFFFF0F189C0010F89E0010C1
:102FC000E09B001010B500291DD0037B99421AD850
:102FD00004684B005B18033BE418002919D0002A51
:102FE0001DD0914221D0002A25D0037B9A4222D8BD
:102FF000006853009B18033BC3189970217800297F
:103000001FD1227010BD104B104A1148682101F0E9
:10301000B9F8104B104A0E486F3101F0B3F80F4B5E
:103020000D4A0B48702101F0ADF80D4B0A4A0848D3
:10303000712101F0A7F8044B044A0548682101F00A
:10304000A1F859702270DDE74C9C0010649F0010BD
:10305000689C0010B49C0010409F0010C09C0010A1
:10306000CC9C001070B506000D001400002914D08F
:10307000002A14D0436880689847002806D02200B0
:1030800029003000FFF79EFF280007E02A002100FA
:103090003000FFF797FF200000E0100070BD08002F
:1030A000FCE70000F0B583B00500009201930AAB85
:1030B0001C780BAB1F78002C26D003685A7B9442F7
:1030C00007D10123002B19D1002C3AD1200003B0E5
:1030D000F0BD002C0CD01A7B944209D81A6863000A
:1030E0001B19033BD3189B78002BEBD00123E9E796
:1030F0003C4B3D4A3D48682101F044F83C4B3D4A79
:103100003D48652101F03EF803689C7B002CDBD034
:1031100011D01A7B94420ED81A686100091903393C
:10312000521851789973002900D1D97300239370F4
:1031300053701370C8E72B4B2B4A2C48682101F0C1
:1031400021F8002C37D02B681B7B9C4233D8AB680E
:103150002A4AA21812019B18009A1A60019A5A6012
:10316000089A9A60099ADA602E68002C29D02ED02D
:10317000337B9C422BD8336862001219033A9B18A8
:1031800000229A705A701A70717B22003000FFF78B
:1031900069FF7073844299D1287D009A019B00F0E9
:1031A0001DFD061E01D0002F17D00C9B002B00D157
:1031B0008CE71E708AE7124B124A0F483B2100F041
:1031C000E1FF114B114A0948A52100F0DBFF054B37
:1031D000054A0648682100F0D5FF2868210000F064
:1031E0001FFFE2E74C9C0010649F0010689C0010D9
:1031F000E49C0010709F0010E09B0010FFFFFF0F89
:10320000189C0010F89E0010DC9B0010549F0010CA
:10321000F0B5DE4657464E464546E0B58BB00990C0
:1032200000230893B24B8200D55833E0B14BB24A29
:10323000B2483F2100F0A6FFB14BB24AB2483B2151
:1032400000F0A0FFB14BB24AAF488C2100F09AFFCA
:10325000B04BAF4AAC48902100F094FFA84BAE4A67
:10326000A948402100F08EFF43461A685B68099820
:1032700000F0B4FC00239B469A466B68BFF35F8F57
:1032800000221A6089F310885346002B53D100287E
:1032900000D126E100F03AFC02000B1EC6DB002044
:1032A0000021069007916868EFF3108972B60168F3
:1032B0000029FCD0BFF35F8F2868447B002C35D0F9
:1032C000BAD0017B8C42B7D8AE6894496118090125
:1032D000B046884441460E684F68B61A9F41002F99
:1032E000C2DC01D1002EBFD1002100F08FFEA04230
:1032F000A8D143461A685B680692079343469B68C9
:103300009A464346DB689B465346002BA0D0002CD0
:10331000A4D02B681B7B9C42A0D8EA68631ED35CB8
:1033200008931B02184328610020A6E700239B4650
:103330009A460020A1E7089B1B0223439846594662
:103340001800D04706000F006A68EFF3108972B6C4
:10335000136859424B41D9B2002BF9D1BFF35F8FAB
:10336000002F26DB002F52DD2B69002B53D0434565
:1033700072D100F0CBFB02000B1E73DB01001800C2
:1033800092197B41984202D804D1914202D901227C
:103390005242D317002B6BDB0021049101310391C2
:1033A000029459460191514600912800FFF77AFE98
:1033B00049E02B69002BD5D043451CD1069A079BC9
:1033C00010001900921BBB41994202D804D19042CF
:1033D00002D901225242D317002B12DB00210491A3
:1033E0000131039102945946019151460091280000
:1033F000FFF758FE27E04A4B454A43489F2100F01B
:10340000C1FE3C4B3C4A3D483F2100F0BBFE002F33
:1034100001D1002EA8D12A68002C44D0537B9C42B5
:103420002CD1012100293ED1D37B002B41D1D47373
:10343000002C50D02B681B7B9C424CD8EA68013C86
:10344000135D0133135500232B616A68BFF35F8F4F
:10345000136089F310881DE7314B2D4A2A48A221B9
:1034600000F090FE234B244A24483F2100F08AFEBE
:10347000204B214A21483F2100F084FE002C0CD033
:10348000137B9C4209D8106863001B19033BC318C7
:103490009B78002BC6D00121C4E7224B224A234847
:1034A000682100F06FFE224B224A2048F62100F0EE
:1034B00069FE002B09D0117B8B4206D81068590099
:1034C000CB18033BC3185C70B1E7164B164A17487C
:1034D000682100F057FE0A4B0F4A0B48402100F0CC
:1034E00051FE0BB0F0BCBB46B246A946A046F0BDAB
:1034F000041900200C9D0010C49E0010289D00108F
:10350000189C0010F89E0010E09B0010709D0010A9
:10351000DC9E0010889D00101C9F0010FFFFFF0F15
:10352000949D00104C9C0010649F0010689C00103B
:10353000D09D0010309F001010B50A4B5B68002B27
:1035400004D009480A21FFF7A1FC10BD054C074A29
:1035500020682300102100F07DFC03212000FFF7EC
:10356000BDFCEEE7EC040020201B00204D2F0010D6
:1035700010B5064B5B68002B01D0044810BD044B0E
:10358000044A05485C2100F0FDFDC046EC04002023
:10359000F49D0010049F0010E09B0010F0B5DE4683
:1035A00057464E464546E0B58BB0804616001F0094
:1035B000149B9A46159B994616AB1B789B461F2376
:1035C00002AA9446634400221A7036E0002809D00B
:1035D00042461268127B904204D84246D168421E8D
:1035E0008A5C4CE0454B464A4648402100F0CAFD03
:1035F0000798002B79D05B46002B76D04946D04700
:1036000004000D0003000B4300D175E000294ADBE4
:1036100000F07CFA02000B1E59DB010018001219A1
:103620006B41984202D804D1914202D90122524200
:10363000D317002B51DB16001F0043465A68EFF3E7
:10364000108472B6136859424B41D9B20791002BCE
:10365000F8D1BFF35F8F1F3302AA944663440493EB
:103660000023039302934B46019353460093320089
:103670003B004046FFF716FD031EA7D1020041465E
:103680004968BFF35F8F00250D6084F31088002B1D
:1036900029D01F2302A98C4663441B78002BA7D195
:1036A00012021043A5E730003900361BAF41B94282
:1036B00002D804D1B04202D901267642F717002F72
:1036C000BBDA114B114A12483F2100F05BFD0E4B53
:1036D0000E4A0F483F2100F055FD0B4B0B4A0C489A
:1036E0003F2100F04FFD012040420BB0F0BCBB4633
:1036F000B246A946A046F0BD0798F6E7189C001010
:103700001C9F0010E09B00100C9D0010C49E001038
:10371000289D0010F8B504004268EFF3108572B6DA
:10372000136858424341D8B2002BF9D1BFF35F8FE1
:10373000CBB22268567BB3421BD10120002847D070
:10374000206988422AD0090AC9B2002B2DD02068EE
:10375000007B834229D8E668581E305C88422AD014
:1037600000206368BFF35F8F00221A6085F3108822
:10377000F8BD002B0CD0167BB34209D817685E0049
:10378000F618033EBE19B678002ED7D00120D5E733
:10379000124B134A1348682100F0F4FC124B134AF1
:1037A00085211348490000F0EDFC124B124A1048E5
:1037B000402100F0E7FC1900100000F031FC002867
:1037C000CFD10E4B094A12210948FF3100F0DAFC33
:1037D00023698B42C5D100232361C2E74C9C0010B2
:1037E000649F0010689C0010189E0010AC9E001092
:1037F000E09B0010189C00101C9F00103C9E0010C5
:10380000F0B585B007000C9E1100194301D10122CB
:103810000023B7600A993161326073600B9971615E
:10382000D81701004240140043401D00241A8D4166
:1038300000F06CF902000B1E1ADB010018001219CF
:103840006B41984202D804D1914202D901225242DE
:10385000D317002B12DB0121029101960A49009136
:103860003800FFF79BFEF060C043C00F05B0F0BD0D
:10387000064B074A07483F2100F084FC034B044AEB
:1038800004483F2100F07EFC9D2E00100C9D00108E
:10389000C49E0010289D0010F0B587B006000F00F0
:1038A000FCF7E1FC00281FD106246442E517A419A7
:1038B0007D41BD4202D803D1B44201D90024002584
:1038C000002D14DB0494059500F020F902000B1E76
:1038D00013DBA41A9D41002D17DC14D030003900F1
:1038E00000F020F907B0F0BD234800F0E5FC234BC1
:1038F000234A24483F2100F045FC204B204A214820
:103900003F2100F03FFC002CE8D0FFF731FE002300
:10391000029301931C4B0093049A059BFFF73EFE14
:10392000002818DADAE7002300E00023002BD5D1C5
:10393000164B1A68EFF3108172B61368002BFCD097
:10394000BFF35F8F114B1B68BFF35F8F00221A60BC
:1039500081F3108820BF0499059A0D4B5B6A9A4247
:10396000E3D80B48806A884203D29A42DBD0012315
:10397000DCE70123DAE7C046409E00100C9D0010F2
:10398000C49E0010289D00101D2F0010201B002039
:1039900000400540F8B504000D0000F0B7F8020043
:1039A0000B1E10DB20002900801859418B4202D8E1
:1039B00004D1824202D901204042C117002908DB0C
:1039C000FFF76AFFF8BD064B064A07483F2100F0A3
:1039D000D9FB034B034A04483F2100F0D3FBC04608
:1039E0000C9D0010C49E0010289D001070B584B07E
:1039F00006000C00FFF7BCFD002302930193194B56
:103A0000009332002300FFF7C9FD051E11DD20BF22
:103A1000FFF7AEFD2900FFF77DFE134B5B6A9C426A
:103A20001BD8114A926AB2421AD29C4213D001208A
:103A300014E00D4B5B6A9C4209D80B4A926AB24271
:103A400007D29C4201D0012008E0002006E00020BF
:103A500004E0012002E0002000E0002004B070BD7E
:103A60000120FBE71D2F00100040054070B5EFF36B
:103A700005833F2018401038EFF3108C72B6184BB6
:103A80001B68002BFBD0BFF35F8F0123190081401F
:103A9000144A5163144A12781400C440234213D0CC
:103AA000104B5C6A114B8500EB589C4205D3104BC0
:103AB000EB580D4C8A43227007E00A4A031D9B0015
:103AC00099589950002300E00023BFF35F8F044A08
:103AD000002111608CF31088002B00D0984770BD36
:103AE000280100D0004005405E1B00202C1B002058
:103AF0003813002010B50100024A034B1800FEF7EE
:103B0000F9FD10BD889F0010591B0020044B5B6A13
:103B1000034A906A1900536A9942F9D17047C04626
:103B200000400540084B5B6A01E0074B5B6A8B4233
:103B3000FBD301E0044B5B6A8B4203D1024B9B6ACF
:103B40008342F7D37047C0460040054070B504007B
:103B50000E00EFF3108572B61B4B1B68002BFBD0D9
:103B6000BFF35F8F002E1CD02000FEF7C3FE174B63
:103B700083420BD019002000FEF7D6FE0121200061
:103B8000FEF7A8FE0123A340114A1360114BA400C5
:103B9000E650BFF35F8F0C4B00221A6085F310884C
:103BA00070BD0C4BA2000021D1500122A2400A4955
:103BB0000B7893430B7005492000FEF7F7FF0021B7
:103BC0002000FEF787FEE4E7280100D06D3A0010E0
:103BD00038600540381300205E1B0020F0B5DE463B
:103BE00000B584B00400150001921E000293FFF797
:103BF0008DFF03958E4202D84ED185424CD9EFF30A
:103C0000108B72B6274B1B68002BFBD0BFF35F8F66
:103C1000254A17780125A540EBB23B431370234B8F
:103C20005D63221D92000199D150214AA1000298A2
:103C300088501B6A2B4212D11C4B1B6C2B4208D0A4
:103C40000020BFF35F8F174B00221A608BF31088A0
:103C500023E0184B184A1948C12100F093FAFFF7E6
:103C600055FF8E4214D802D1039B834210D80E4BCD
:103C70001B78BB420ED00D4B1D625D631F2222409C
:103C8000012393400E4A1360074B1F700120D8E7B1
:103C90000020D6E70120D4E7012004B080BCBB4659
:103CA000F0BDC046280100D05E1B0020004005404A
:103CB0002C1B0020AC9F001014A00010D09F0010FF
:103CC00080E200E0EFF3108C72B60B4B1B68002B08
:103CD000FBD0BFF35F8F01238340084A136208497A
:103CE0000A789A430A70BFF35F8F034B00221A6071
:103CF0008CF310887047C046280100D00040054072
:103D00005E1B002010B500291DD0037B99421AD8F4
:103D100004684B005B18033BE418002919D0002A03
:103D20001DD0914221D0002A25D0037B9A4222D86F
:103D3000006853009B18033BC31899702178002931
:103D40001FD1227010BD104B104A1148682100F09D
:103D500019FA104B104A0E486F3100F013FA0F4B4E
:103D60000D4A0B48702100F00DFA0D4B0A4A084825
:103D7000712100F007FA044B044A0548682100F05D
:103D800001FA59702270DDE74C9C00101CA1001054
:103D9000689C0010B49C001008A10010C09C00108A
:103DA000CC9C001070B506000D001400002914D042
:103DB000002A14D0436880689847002806D0220063
:103DC00029003000FFF79EFF280007E02A002100AD
:103DD0003000FFF797FF200000E0100070BD0800E2
:103DE000FCE7000010B50023437301338373037BAA
:103DF000C3730123027B9A4213D9002B0BD0027BA1
:103E0000934208D801685A00D218033A8A1801333D
:103E1000DBB25370EEE70C4B0C4A0D48682100F002
:103E2000B1F9002A09D0924207D8016853009B18C3
:103E3000033BCB1800225A7010BD034B034A0448C1
:103E4000682100F09FF9C0464C9C00101CA1001096
:103E5000689C001010B5017342608360FFF7C2FFD9
:103E600010BD000070B50400081E00D170BD00290F
:103E700031D0237B99422ED822684B005B18033B3C
:103E8000D3185A78002AF1D02BD0237B9A4228D815
:103E9000216853009B18033BCB185D7800215970B3
:103EA000002824D0237B984221D8216843001B1886
:103EB000033BCB180021597001002000FFF772FF6F
:103EC000060029002000FFF7CDFF0200310020008E
:103ED000FFF768FFCAE7094B094A0A48682100F062
:103EE00051F9064B064A0748682100F04BF9034B8D
:103EF000034A0448682100F045F9C0464C9C001074
:103F00001CA10010689C001070B505000C00160084
:103F1000002927D02CD0037B994229D80368490077
:103F2000091903395B185A78002A27D19A78002A90
:103F30002AD11978FFF796FF0300002E03D0EA7B01
:103F4000002A27D1EC73002B36D1002C47D02B7BD5
:103F50009C4244D82A6863001B19033BD3180022F3
:103F60005A7070BD214B224A2248382100F00AF9CC
:103F7000214B224A2248682100F004F9214B1C4AB7
:103F80001C483A2100F0FEF81F4B194A19483B2102
:103F900000F0F8F8002A09D0297B8A4206D82E685A
:103FA00051008A18033AB2185470CBE7124B134AE7
:103FB0001348682100F0E6F8002B0AD02A7B9342D0
:103FC00007D82A6843001B18033BD31800229A70B5
:103FD000BBE7094B094A0A48682100F0D3F8064BB1
:103FE000064A0748682100F0CDF8C04630A000100E
:103FF000F4A0001038A000104C9C00101CA1001070
:10400000689C001070A0001098A0001070B504000B
:104010000A00457B2900FFF777FF6073280070BD19
:1040200070B50400002966D0437B8B420ED0002976
:1040300011D0037B99420ED805684B005B18033BF7
:10404000ED18AB78002B0CD1002055E00121FFF7D3
:10405000DDFF012050E0294B294A2A48682100F061
:1040600091F8002B1FD0027B93421CD800685A00A5
:10407000D318033BC218C35C8B421AD0002B1BD051
:10408000227B934218D820685A00D318033BC018EB
:1040900043788B4216D0002BF0D11B4B1B4A1C4897
:1040A000672100F06FF8154B154A1648682100F09B
:1040B00069F86B78137007E0104B114A11486821BA
:1040C00000F060F86B7843700023AB706B700122D6
:1040D0002000FFF719FF0200617B814205D020001C
:1040E000FFF760FE6073012006E00A4B074A0848AC
:1040F0006D2100F047F8002070BDC0464C9C0010B8
:104100001CA10010689C0010109B0010DCA0001087
:1041100038A00010BCA0001010B50400FEF746FB4C
:1041200001002000FEF7B2FEFF232371BFF35F8F73
:1041300010BD10B50400FEF739FB01002000FEF7AA
:10414000A5FEFF23237100236371BFF35F8F10BDB2
:10415000034B9C46614489000160BFF35F8F704749
:104160004000003410B504000120FEF72DFB0100D3
:104170002000FFF7EDFF10BD00BEFDE710B5FFF713
:10418000FBFF000030B583B00D001900002A0DD0F0
:10419000084B002A0CD0084C019200932B0002001F
:1041A000200002F035FC0120FFF7E6FF034BF0E7AB
:1041B000024AF0E7F0A1001000A20010FCA10010DC
:1041C00070B52B4B2B4A1A602B4B2C4A1A602C4B88
:1041D0009A682A4B9343FAD12A4C01E008CC9847BD
:1041E000294B9C42FAD300F001F9234B274A1A606D
:1041F000234B9B68DB43DB01FAD1254B40229A67B6
:104200005A671A67DA66234C09E0234B234A24488D
:104210008321FFF7B7FF2000FFF77EFF0834214B13
:104220009C4209D22368002BF5D0012BEDD1200050
:10423000FFF77FFF0834F2E71B4DA9681B4CC02233
:10424000200002F0A1FAAC60FCF70DF8002800D0C5
:1042500000BEFEF79BFAFEF7F3FDFFF76DF9144C75
:1042600001E008CC9847134B9C42FAD370BDC0467E
:1042700000E00040BFCDFBFE00F00040FE7F3C00B0
:1042800000C000408805002098050020FFFFFF01C6
:1042900000F001408005002030A20010A8A200100C
:1042A00050A200108805002000ED00E00000002072
:1042B00098050020A00500200FB400B583B0084881
:1042C00002F074FB049B002B07D005A90191180094
:1042D00002F07CFB034802F069FB0120FFF74CFF72
:1042E00094A20010A4A20010F8B5DE4657464E4630
:1042F0004546E0B506000F0015000A9A93424ED3DA
:104300001A0E92461B0298460A9A002340465146CE
:1043100001F078FB81467400A419A4002E4B9C4642
:1043200064446368834200D26060331FDBB29B4603
:10433000012B3AD9C0239B012343802212011A602A
:10434000264BB200D158002905D0586901F018FB5E
:1043500001300138FDD16D0123685D40E0222A4023
:1043600080235B0123431A605A46012A28D98023FF
:104370009B012343802212011A604B4663604A4628
:1043800000234046514601F03DFB144BB6009851C6
:104390000120F0BCBB46B246A946A046F8BD104B72
:1043A000104A11482D21FFF7EDFE012FC2D1C02385
:1043B0009B01234303221A60A368DB07FCD5CAE7ED
:1043C0002168794003220A401A60A3680125BD4094
:1043D0001D42FAD0CBE7C046008000404C140020BC
:1043E000B8A2001010A30010CCA2001030B583B00A
:1043F0000C2000F021F9FEF7BFF900280DD00023B2
:1044000004E02E4A99002E4888500133092BF8D930
:104410002A4B2C4A5A6203B030BD2B4B00229A67BC
:1044200000F088F9294B01221A60274B5B6C012BA5
:10443000FBD1274B03221A60234B9B6B012BFBD133
:10444000013300930433234A0121234800F054F838
:1044500005230093214A0121214800F04DF8214B0A
:104460000093002202210420FFF73EFF1E4D00951D
:104470002B00002201210520FFF736FF104C00948D
:104480002300002200210720FFF72EFF00942300C5
:10449000002200210820FFF727FF0A4B009323008A
:1044A000002200210920FFF71FFF00952B000022AA
:1044B00000210620FFF718FFADE7C0464C1400208E
:1044C000006CDC021BB70000008000403CB00040E4
:1044D00030B00040002F685900800240008C8647B1
:1044E00000C00240001BB70040597307014B800019
:1044F000C05870474C140020F0B5C64600B5040003
:104500000F0090461D000C2001F03AFA06003D4ACB
:1045100042443D4B9A4243D843011B1A9901C91AA0
:10452000C90009188901404601F02AFA0200103A30
:1045300098235B009A4239D86B1E062B3CD8069B09
:10454000013B062B38D8069B9D423BD343461B09B3
:10455000B3423DD32D04069B1E0335432368002B35
:104560003CDB2A4B9C424AD080235B01284A1360E3
:10457000284A1360284A926819009143FAD12760AB
:10458000A060221DC0239B01134321221A602268D0
:10459000002AFCDAE56008221A6080BCB846F0BD4B
:1045A0001E4B1F4A1F481121FFF7ECFD1E4B1C4AF2
:1045B0001C481921FFF7E6FD1C4B194A19481C211C
:1045C000FFF7E0FD1A4B164A16482221FFF7DAFDE5
:1045D000184B134A13482521FFF7D4FD22683F23C7
:1045E0001340BB42BDD1A3681B051B0D8342B8D14C
:1045F000E368EE22D2021340AB42B2D1CDE7802372
:104600009B01B3E780E84BD380F8A93200C0024099
:1046100000E0004000F0004000C0004020A3001077
:104620005CA4001080A30010C0A30010DCA3001045
:1046300028A4001040A4001080239B000343014ADB
:10464000D362704700800540024B1A68024B5A60E3
:104650007047C046E41800200080054010B50200F5
:10466000164B8020C0051860154B164818600029AD
:104670000AD0154BE021C9041960002A09D1124B58
:10468000802212061A6010BD0C4BE021C90419608B
:10469000F3E753019B1A9800801800010B4B186038
:1046A00080235B04984202D3084B094A1A60FFF743
:1046B000CBFF054B8022D2051A60E4E700B005402D
:1046C00008200140FCFF010000A00540E418002084
:1046D000FFFFFF0010B5034B034ADA61FFF7BEFF8F
:1046E00010BDC046008005402131B76A10B50300F7
:1046F00010000C4A8024E4051460002B0DD0012228
:104700001343094A094CD461094C5C40146251625C
:1047100093620021FFF7A2FF10BD034B0022DA6174
:10472000F7E7C04600B0054000800540D3C007B0A1
:104730002D3FF84F064BAA2212011A602F22DA6091
:10474000044B054A1A60024B5B68002BFBDA70478A
:10475000004002400060024000B0FA00704710B50F
:10476000002802D00B684968984710BD010000205E
:1047700007E083001B185B00501C08601078C0180D
:1047800030380A681378303BDBB2092BF1D9704717
:10479000F0B5DE4657464E464546E0B583B09346F3
:1047A0001F000C9B9A460D9C0E9B99460F9B9B07E6
:1047B00003D0B8460F00060022E00192A3468846C7
:1047C0004E46B9460700B44207D2551C4B464146F7
:1047D0002020B84701342A00F5E73D004F465C46EB
:1047E000019B9B46B1464646B84637002E0007E07F
:1047F000013C551C5346185D43463900B0472A001A
:10480000002CF5D135003E0047460F9B9B0707D48F
:10481000100003B0F0BCBB46B246A946A046F0BDAE
:10482000B0464E46B9462F005D46531BB342EFD209
:10483000541C4B4641462020B8472200F5E7F0B50E
:10484000CE46474680B585B0944698460C9D0D9C53
:104850000EAB1B789946109A119B129EB7071CD479
:10486000002B0CD0F7070AD54F46002F02D10C378A
:10487000374204D0013B02E030272F5501349442E7
:1048800001D21F2CF8D9F70707D59C4205D21F2C5F
:1048900003D830272F550134F5E7F70615D57705EE
:1048A00005D4002C03D0944224D09C4222D00F9AED
:1048B000102A2BD00F9A102A30D00F9A022A35D006
:1048C0001F2C02D830222A5501341F2C05D84A4605
:1048D000002A31D02D222A550134039602930194E7
:1048E000009543466246FFF753FF05B0C0BCB9468A
:1048F000B046F0BD621E012C06D00F9F102F01D0D4
:104900001400D4E7023CD2E71400D0E7B206D1D4B9
:104910001F2CCFD878222A550134D1E7B206CCD546
:104920001F2CCAD858222A550134C9E71F2CC7D8D2
:1049300060322A550134C3E7720703D52B222A556A
:104940000134CAE73207C8D520222A550134C4E70A
:10495000F0B5DE4657464E464546E0B593B0814633
:104960008A46089209931CAB10CB1B789B461E9D70
:10497000219B9846002C03D1102342469A4390462F
:104980008023DB0046461E4042461A4212D0002CCD
:1049900022D000260EE03031CBB2771C0AAA935504
:1049A0002900200000F0ECFFAC4216D31F2F14D8D2
:1049B0003E0004002900200000F0E2FFC9B20929EE
:1049C000E9D943469B0605D541235B18DBB20A3B78
:1049D000DBB2E2E76123F8E7270043460693209B1A
:1049E00005931F9B049303955B46029301970AABC3
:1049F0000093099B089A51464846FFF720FF13B0E1
:104A0000F0BCBB46B246A946A046F0BDF0B5DE46B6
:104A100057464E464546E0B595B0089009910A9232
:104A20000B931E9E1F9C20AB1B789B46229B994696
:104A3000239D269B9A463300234303D110335246CD
:104A40009A4392468023DB0057461F4052461A4243
:104A500019D0330023432DD0002714E03032D3B2D5
:104A60007A1C90460CAAD3554A462B0030002100F0
:104A700000F0C8FFA5421FD819D043461F2B1BD8F2
:104A8000474606000C004A462B003000210000F08B
:104A9000B9FFD2B2092AE1D953469B0605D5412375
:104AA0009B18DBB20A3BDBB2DAE76123F8E7B145DA
:104AB000E3D901E00023984653460693259B0593CE
:104AC000249B04934B4603935B4602934346019316
:104AD0000CAB00930B9B0A9A09990898FFF7AFFE5D
:104AE00015B0F0BCBB46B246A946A046F0BD0000DA
:104AF000F0B5DE4657464E464546E0B591B0834692
:104B00008A460C9298461A9C08941B9D099522008F
:104B10002B002000290001F004FA002800D0E5E075
:104B200001225242D74B2000290001F0F5F900285C
:104B300000D0DBE001225242D34B2000290001F0DB
:104B4000D5F9002800D0D1E000220023089E3000D3
:104B5000099D290001F0CAF9002800D0DDE0089A7B
:104B6000099B069207938023DB001E9A1A400D9240
:104B70001E9A1A4201D106231C9306980799040035
:104B80000D000A000600024300D1D1E0080D4005E7
:104B9000400DBE4CA44660440A03120BBC4B1343A9
:104BA0001F0001F0D1F9BB4ABB4B01F05CF9BB4AD5
:104BB000BB4B01F031F904000D000022B94B30006D
:104BC000390001F020F9B84AB84B01F04CF9020065
:104BD0000B002000290001F01FF901F0CDF98146FA
:104BE00001F0B2F904000D00B14AB24B01F03BF9FB
:104BF0000022B14B01F010F901F0BEF90600AF4AF6
:104C0000AF4B2000290001F02EF904000D00300008
:104C100001F09AF9AB4AAC4B01F025F902000B0008
:104C20002000290001F0EFF804000D0002000B0045
:104C300001F019F90A900B91A44BF31800261F05F7
:104C400022002B002000290001F0E6F80E900F91C1
:104C500022002B0000208021C90501F0D4F80400B7
:104C60000D0000229A4B0A980B9901F0DEF8002201
:104C7000984B01F0D1F802000B000A980B9901F053
:104C8000D4F80022944B01F0C7F802000B000A98F8
:104C90000B9901F0CAF802000B002000290001F076
:104CA000BBF802000B000E980F9901F0BEF800222D
:104CB000774B01F0B1F832003B0001F0D4F8060068
:104CC0000F0004000D00069A079B01F025F900284B
:104CD00030D001235B429C46E14400227D4B3000F2
:104CE000390001F0A2F804000D0023E01E9B04939C
:104CF0001D9B03931C9B0293089A099B00920193AE
:104D000043460C9A5146584600F0FCF811B0F0BCEE
:104D1000BB46B246A946A046F0BD00230024069338
:104D20000794069680231B069C46654407951AE760
:104D3000002399464B466333C62B1ED804261E9B80
:104D40001B0526D52B0023430FD0644A644B0698DD
:104D5000079901F0D9F8002879D00022614B069814
:104D6000079901F0C3F8002871D01C9B4B4506DD64
:104D70004A469B1A013B1C9303E00526DFE700230C
:104D80001C938023DB001E9A1A431E9200260023E8
:104D900099461D9B9E4264D29F1B02231E9A1A4075
:104DA0000A921E9A134202D0002E00D000274B46D2
:104DB000002B07D022002B000698079901F035F848
:104DC00006900791002200230898099901F08EF8B7
:104DD000002848D1444B1E9A1340049303971C9B10
:104DE0000293069B079C0093019443460C9A5146FC
:104DF000584600F087F8002E00D187E71E9B9B06DF
:104E00003DD54525441C4346020051462800D8475D
:104E10004A46D317D2185A4005230593013E0496FB
:104E2000002303930A3302934B46DB0F0193009256
:104E30004346220051465846FFF78AFD0A9B002B45
:104E400000D163E702005F460C9E1D9D54E01C9B51
:104E5000002B9ED00D9B002B9BD01C9B013B1C93D9
:104E600097E7002799E7069C079D220029008020EC
:104E70000006844661440B0006920793AAE7652565
:104E8000C0E7C046FFFFEF7FFFFFEFFF01FCFFFF22
:104E90000000F03FFB799F501344D33FB3C8608BB1
:104EA000288AC63F0000F83F61436F63A787D23F5F
:104EB00071A379094F930A400000E03F1655B5BB36
:104EC000B16B0240EF39FAFE422EE63FFF030000CD
:104ED00000002C4000002440000018402D431CEB33
:104EE000E2361A3F80842E41FFF7FFFF541C4346F1
:104EF00051462020B8472200931BAB42F6D3100046
:104F000004E7C046F0B5DE4657464E464546E0B596
:104F100095B00690079193469946209F1E9A1F9B35
:104F20001000190000F0FDFF002831D1012252428B
:104F3000BF4B1E981F9900F0D9FF002837D10122DE
:104F40005242BC4B1E981F9900F0E6FF00283DD14D
:104F50000022B94B1E981F9900F0DEFF002850D1A7
:104F60000022B64B1E981F9900F0C0FF002848D1C0
:104F7000002200231E981F9900F0B8FF002850D18E
:104F800000239846229B5B0500D4B6E0002458E03D
:104F9000229B0393219B029303230193A84B00932D
:104FA0004B465A4607990698FFF7F2FB0EE1229B03
:104FB0000393219B029304230193A24B00934B463E
:104FC0005A4607990698FFF7E3FBFFE00423229A6D
:104FD0001A4022990B4210D09B4B002A0FD004227A
:104FE0002299039121990291019200934B465A46CE
:104FF00007990698FFF7CCFBE8E0944BEDE7032216
:10500000EEE7229B0493219B039302971E9B1F9C18
:10501000009301944B465A4607990698FFF768FD9E
:10502000D4E01E9A1F9B0020002100F0ECFE1E9091
:105030001F9101239846A5E70CAB30221A55013F7A
:1050400001341F2C01D8092FF6D81E981F9900F0A3
:1050500093FF050000F078FF02000B001E981F99D7
:1050600000F0D1FE7A4BFA009B181A685B680A922E
:105070000B9300F0F8FE0890099100F0A1FF0600E4
:1050800000F05EFF02000B000898099900F0BBFEDB
:105090000890099100226F4B00F03EFF00282ED0AF
:1050A0000136300000F04CFF02000B000A980B990B
:1050B00000F022FF002801D001350026002F2CD15E
:1050C000280000F041FF02000B001E981F9900F01D
:1050D0009AFE06000F0000225E4B00F007FF00283A
:1050E00046D100225B4B3000390000F015FF00284C
:1050F0003ED1EB073CD501353AE0062746E70022D2
:10510000544B0898099900F0F1FE0028D6D1002EE2
:1051100001D0F307D2D50136D0E7AA461F2C11D80B
:10512000013F0A21300000F02BFC651C30310CAB34
:1051300019550A21300000F023FC092E0ED9060073
:105140002C00EBE755461F2C0CD87B1E002F09D0F6
:105150000CAA302111551F000134F4E72B005546ED
:105160001C00F0E71F2C03D80CAB2E221A5501347B
:105170001F2C10D80A21280000F0DAFB661C303101
:105180000CAB19550A21280000F0D2FB051E01D0F6
:105190003400EDE734000323229A1340012B1CD086
:1051A0001F2C06D84346002B32D00CAB2D221A55AB
:1051B0000134229B0393219B029301940CAB009337
:1051C0004B465A4607990698FFF7E2FA15B0F0BC2D
:1051D000BB46B246A946A046F0BD219B002B13D08A
:1051E0004346002B02D10C3313420FD0219B013BCD
:1051F0002193190003E00CAB30221A5501348C4284
:10520000CED21F2CF7D9CBE72199F8E72199F6E701
:10521000229B5B0704D50CAB2B221A550134C8E73F
:10522000229B1B07C5D50CAB20221A550134C0E7C1
:10523000FFFFEFFFFFFFEF7F65CDCD4165CDCDC116
:1052400074A4001078A4001068A4001070A40010CA
:1052500020A600100000E03FF0B5DE4657464E465F
:105260004546E0B593B082468B469046119300299F
:1052700000D100E300275446119B1878002800D184
:10528000FCE2252809D07D1C43463A005946A04738
:10529000119B013311932F00EEE701331193002589
:1052A000119A11780B00203BD8B2102803D8830044
:1052B000C248C3589F460B00303BDBB2092B2CD9A8
:1052C0002A292FD000230A93119B1A782E2A39D02D
:1052D00000239946119A1378683BD9B2122976D8DF
:1052E0008B00B749CB589F4601231D4301321192D1
:1052F000D6E702231D4301321192D1E704231D4357
:1053000001321192CCE708231D4301321192C7E705
:1053100010231D4301321192C2E711A8FFF726FAAC
:105320000A90D1E71C9B1A1D1C921B68002B04DB02
:105330000A93119B01331193C6E7022215435B4286
:105340000A93F6E78022D20015435A1C11925A782C
:105350001300303BDBB2092B04D92A2A07D00023E3
:105360009946B7E711A8FFF701FA8146B2E71C9BFF
:105370001A1D1C921B68002B04DB9946119B0133FC
:105380001193A7E70023F8E780235B002B43511C10
:10539000119152786C2A01D01D0018E0C0239B00A7
:1053A0001D430131119112E080232B43511C1191B7
:1053B0005278682A01D01D0009E0C0231D43013145
:1053C000119104E080235B001D4301321192119B77
:1053D0001878672816D8252826D30300253BDAB28B
:1053E000422A21D89300774AD3589F4680239B00B6
:1053F0001D4301321192EAE780235B001D43013215
:105400001192E4E778280FD869280DD30200693A91
:10541000D2B2012393406C4A13420FD11A0600D531
:1054200003E25B0500D594E17D1C43463A005946F2
:10543000A047119B013311932F001DE7782809D055
:10544000622838D06F2838D0582838D010239D4390
:105450000A2600E01026582833D0692803D0642893
:1054600001D00C2295436A0501D501229543692894
:105470002AD0642828D0AA0500D5A7E0EA0500D5DF
:10548000C0E06A0600D4D2E01C9A111D1C9111687C
:10549000FF220A4005950A9B04934B46039302960C
:1054A00000230193009243463A0059462000FFF73B
:1054B0004FFA070027E00226CDE70826CBE71026A3
:1054C000C9E720221543C8E7AA0520D4EA0550D42D
:1054D0006A0666D51C9A111D1C911168FF220A40AC
:1054E000D0171118414005950A9B04934B4603932E
:1054F0000296D20F0192009143463A00594620008D
:10550000FFF726FA0700119B01331193B4E61C9AAA
:10551000073207218A43110008311C911168536832
:105520009C46DB170C930D930C9A0D9B1000484082
:105530000E90624653400F930E980F990C9A0D9B54
:10554000801A99410E900F9108950A9B07934B463C
:1055500006930496002305936346DA0F02920090A7
:10556000019143463A0059462000FFF74FFA0700E1
:10557000C9E71C9A111D1C911268D01711184140DF
:1055800005950A9B04934B4603930296D20F019212
:10559000009143463A0059462000FFF7D9F9070029
:1055A000B1E72A0605D51C9A111D1C910023D25E75
:1055B00096E71C9A111D1C91126891E780A40010B7
:1055C000C4A4001010A50010419000001C9A0732DE
:1055D00007218A43110008311C9108950A9B079303
:1055E0004B46069304960023059302935368126872
:1055F0000092019343463A0059462000FFF706FA0D
:10560000070080E71C9A111D1C9105950A9B0493C5
:105610004B4603930296002301931368009343467D
:105620003A0059462000FFF793F907006BE72A0676
:1056300006D51C9A111D1C9112681204120C29E740
:105640001C9A111D1C91126824E746281AD01C9B35
:105650000733072293431A0008321C9204950A9AD2
:1056600003924A4602921A685B680092019343468D
:105670003A0059462000FFF745FC0700119B013313
:105680001193F9E520231D43E1E7672801D047285E
:1056900002D180231B011D43452801D0472801D199
:1056A00020231D431C9B0733072293431A00083213
:1056B0001C9204950A9A03924A4602921A685B6801
:1056C0000092019343463A0059462000FFF710FA32
:1056D0000700119B01331193CEE502231A002A40E3
:1056E00092462B421FD001251C9B1A1D1C927A1C2E
:1056F0009146187843463A005946A0475346002B36
:1057000016D1119B013311934F46B5E5561C434604
:1057100059462020B8472B0032005D1C9C42F5D82A
:105720003C001700E0E701233A0027000A9CF4E759
:105730004A46A1460A9C06E0571C4346594620208B
:10574000C84735003A006E1CAC42F5D84C4691462D
:10575000D7E71C9B1A1D1C921E684B46002B00D1DC
:10576000013B310001E0013113000A78002A02D028
:105770005A1E002BF7D1891B10918023DB002A00D1
:105780001A4092461D4203D0494501D94B46109319
:1057900002231A002A400B922B4205D03A005746AA
:1057A00023004C46994620E03A00109B5F46B346E2
:1057B000260006E0541C434639002020B0472B0049
:1057C00022005D1C0A999942F4D834005E46BB461B
:1057D0001095574623004C46994606E01C000136BA
:1057E000551C43465946C8472A003078002804D043
:1057F000002FF4D0631E002CF0D117004C460B9BF9
:10580000002B03D1119B0133119335E50A9F109BA7
:1058100006E0561C434659462020A0472B00320084
:105820005D1C9F42F5D81700ECE721232B431C9AFF
:10583000111D1C9112680593082304934B46039392
:105840001023029300230193009243463A005946E5
:105850002000FFF77DF80700119B013311930BE542
:105860007D1C43463A0059462520A047119B013331
:1058700011932F0000E50B4B9A46FBE4A2464745E7
:1058800002D343465A1E00E03A00434659460020E0
:10589000D047380013B0F0BCBB46B246A946A0467C
:1058A000F0BDC0465D47001000B585B00290039181
:1058B00001210448009313004A4202A9FFF7CCFCDF
:1058C00005B000BD5F47001001480421014B184797
:1058D00020050020F958001010B5010018231B887E
:1058E00014221088984710BD10B5010018231B889A
:1058F00016221088984710BDF0B5C64600B50700BF
:105900000E0000250123984600E00135B5420AD279
:10591000AC003C192068FFF7DFFF20600028F4D1BD
:1059200000239846F1E7404680BCB846F0BD000031
:10593000124A936F9B0815D29066D166002905D054
:10594000FFE7FFE7FFE7516F106F704704B5802155
:105950000906C2175140002800D0C84303F03CFF9D
:10596000002104BDF0B5146E556E576F166FFFF72A
:10597000E3FF1466556657671667F0BD000000D058
:10598000114A936F9B0813D210665166002905D007
:10599000FFE7FFE7FFE7516F106F704704B500287E
:1059A00001D00020C04303F017FF002104BDC04612
:1059B000F0B5146E556E576F166FFFF7E5FF14665E
:1059C000556657671667F0BD000000D094464E4AF2
:1059D000926F9208624601D230E0C046F0B54A4E5E
:1059E000B56F6D08FCD3346E756E776F366F00F04F
:1059F00025F89446444A146655665767166762460A
:105A0000F0BDC0469446404A926F9208624601D269
:105A100058E0C046F0B53C4EB56F6D08FCD3346E0F
:105A2000756E776F366F00F04DF89446364A1466FF
:105A30005566576716676246F0BDC046002B24DBEB
:105A400011D000293EDA00B5C943404200D10131EE
:105A500000F038F8C943404200D10131DB435242E3
:105A600000D1013300BD002AEBD1002801D100296B
:105A700005D00020C90FC90701D1C043410800B5B6
:105A800003F0A2FE0022002300BD00B500290ADBBE
:105A9000DB43524200D1013300F014F8C9434042C5
:105AA00000D1013100BDC943404200D10131DB4387
:105AB000524200D1013300F005F8DB43524200D1DD
:105AC000013300BD002923D1002B18D1002A0CD0AE
:105AD000BC460D4F38667A6600210023FFE7FFE7DA
