:020000041000EA
:1000000000B5324B212058609868022188439860DF
:10001000D860186158612E4B002199600221596106
:100020000121F02299502B49196001219960352056
:1000300000F044F80222904214D00621196600F024
:1000400034F8196E01211966002018661A6600F04E
:100050002CF8196E196E196E052000F02FF8012189
:100060000842F9D1002199601B49196000215960AB
:100070001A491B48016001219960EB211966A021F2
:10008000196600F012F800219960164914480160C1
:100090000121996001BC002800D000471248134993
:1000A000086003C880F30888084703B5996A0420EC
:1000B0000142FBD001200142F8D103BD02B5186610
:1000C0001866FFF7F2FF186E186E02BD00000240BE
:1000D000000000180000070000035F00212200005C
:1000E000F4000018222000A00001001008ED00E03C
:1000F00000000000000000000000000074B24E7A12
:1001000000200420F7010010C3010010C5010010F9
:10011000C1010010C1010010C1010010C101001097
:10012000C1010010C1010010C1010010C701001081
:10013000C1010010C1010010C9010010CB01001065
:10014000CD010010CD010010CD010010CD01001037
:10015000CD010010CD010010CD010010CD01001027
:10016000CD010010CD010010CD010010CD01001017
:10017000CD010010CD010010CD010010CD01001007
:10018000CD010010CD010010CD010010CD010010F7
:10019000CD010010CD010010CD010010CD010010E7
:1001A000CD010010CD010010CD010010CD010010D7
:1001B000CD010010CD010010CD010010CD010010C7
:1001C00000BE00BE00BE00BE00BE00BE00F04BF888
:1001D000103800BEF2EB887180A80010A4A80010AF
:1001E0003402001090A31AE700202149086006C8D5
:1001F00081F3088810471F48006800282FD10DA4FC
:100200000ECC002902D000F012F8F9E71A491B4A77
:10021000002000E001C19142FCD1194988471949E9
:1002200088471949884700BEFDE701C901C29A42C3
:10023000FBD37047A4A80010C0000020A005002038
:1002400084AD0010000004200000042084AD0010E4
:1002500000100420001004200000000070470B482C
:1002600004F0A6FF0047EFF30580C0B2704700001E
:1002700008ED00E0000000D0A0050020601B002079
:10028000993A0010A51B0010553A0010575600006F
:1002900006005250ABB36053ACA0001006005250A1
:1002A000861C0302BCA00010060052505422A29DDE
:1002B000C0A0001005005250DE65F46884AD001047
:1002C000F8B5C04606480749091A8B10C90FC91866
:1002D00010B5491003D0044B002B00D0984710BD37
:1002E000A0050020A005002000000000054B10B56F
:1002F000002B03D00449054800E000BFFFF7E2FFF0
:1003000010BDC04600000000EC1800201091001045
:100310000A4B1B889BB2002B04D0084A1388013B70
:100320009BB21380064B1B889BB2002B04D0044A5F
:100330001388013B9BB213807047C046521B0020BC
:10034000541B0020D0231B065B689B0105D5D023DE
:100350001B06802292049A617047D0231B068022DC
:1003600092045A61F8E7F0B5C64600B584B00400BF
:100370000E0017001D0002F067FD8046E117FA220B
:1003800092000023200005F0ABFD02000B00029557
:1003900001970096404602F09FFE04B080BCB8462C
:1003A000F0BD000030B583B000236A46D3716A46C1
:1003B0009371937111E1D0231B06802252019A613F
:1003C0005AE0D0231B068022D2019A6165E0D02337
:1003D0001B06802252029A6170E0D0231B06802205
:1003E00092019A617CE0D0231B06802212029A615E
:1003F00088E0D0231B06802292029A6194E0D023E9
:100400001B068022D2009A61A0E0D0231B06802226
:1004100092009A61ACE0D0231B06802252009A61C0
:10042000B8E0D0231B0680229A61D0242406202520
:1004300065610120002102F019FFA5616B46DA1DFC
:10044000DB790133DBB213706B4607331B78DBB209
:100450001F2B00D9B0E06B4699796B4607331B78A8
:10046000674A49015B185B009B5A5B06A3D5D02302
:100470001B06802252015A616B4699796B460733FD
:100480001B785F4A49015B185B009B5A9B0698D515
:10049000D0231B068022D2015A616B4699796B46A4
:1004A00007331B78564A49015B185B009B5ADB06F1
:1004B0008DD5D0231B06802252025A616B46997952
:1004C0006B4607331B784E4A49015B185B009B5A09
:1004D0009B0500D481E7D0231B06802292015A613C
:1004E0006B4699796B4607331B78454A49015B187F
:1004F0005B009B5ADB0500D475E7D0231B068022E6
:1005000012025A616B4699796B4607331B783C4A55
:1005100049015B185B009B5A1B0600D469E7D02396
:100520001B06802292025A616B4699796B4607330B
:100530001B78334A49015B185B009B5A1B0700D4A8
:100540005DE7D0231B068022D2005A616B46997961
:100550006B4607331B782A4A49015B185B009B5A9C
:100560005B0700D451E7D0231B06802292005A611A
:100570006B4699796B4607331B78214A49015B1812
:100580005B009B5A9B0700D445E7D0231B068022C3
:1005900052005A616B4699796B4607331B78184AAB
:1005A00049015B185B009B5ADB0700D439E7D02375
:1005B0001B0680225A6138E7D0231B0610229A615D
:1005C00030329A61E1204000002102F04FFE6B467C
:1005D0009A1D9B790133DBB213706B4606331B788F
:1005E000DBB21F2B09D8D0231B0640225A61303AB8
:1005F0005A616B460022DA7126E703B030BDC0466F
:10060000D806002070B582B06B460022DA71172838
:1006100001D901F0BCFA8000D04B1B589F466B46B5
:100620000222DA7124E001294AD06B46DA1DDB7917
:10063000CB485B001D5A14781035CA4BA4011C1915
:10064000A58014786400255A14781035A4011C196B
:10065000E58014786400205A147802001032A40156
:100660001B191A816B46DA1DDB790133DBB213707B
:100670006B4607331B78DBB2052B01D901F087FAF3
:100680000029D0D16B46DA1DDB79B5485B001D5AD5
:1006900014784035B34BA4011C19A580147864006C
:1006A000255A14784035A4011C19E580147864009B
:1006B000205A147802004032A4011B191A81D1E794
:1006C0006B46DA1DDB79A6485B001D5A147820358D
:1006D000A44BA4011C19A58014786400255A147831
:1006E0002035A4011C19E58014786400205A147880
:1006F00002002032A4011B191A81B3E76B460222C3
:10070000DA7124E001294AD06B46DA1DDB79944C7A
:100710005B001D5B10781035924B80011818C58165
:1007200010784000055B107810358001181805829C
:1007300010784000005B147802001032A4011B19ED
:100740005A826B46DA1DDB790133DBB213706B46DC
:1007500007331B78DBB2052B01D901F018FA002909
:10076000D0D16B46DA1DDB797D4C5B001D5B1078C8
:1007700040357C4B80011818C58110784000055B1E
:100780001078403580011818058210784000005B11
:10079000147802004032A4011B195A82D1E76B463B
:1007A000DA1DDB796E4C5B001D5B107820356D4BDC
:1007B00080011818C58110784000055B107820353D
:1007C00080011818058210784000005B1478020040
:1007D0002032A4011B195A82B3E76B460222DA7158
:1007E00024E001294AD06B46DA1DDB795C4C5B00C2
:1007F0001D5B107810355B4B80011818058310784D
:100800004000055B1078103580011818458310787A
:100810004000005B147802001032A4011B199A8377
:100820006B46DA1DDB790133DBB213706B4607339D
:100830001B78DBB2052B01D901F0A9F90029D0D131
:100840006B46DA1DDB79464C5B001D5B107840354A
:10085000444B80011818058310784000055B107820
:10086000403580011818458310784000005B1478EB
:1008700002004032A4011B199A83D1E76B46DA1DAE
:10088000DB79374C5B001D5B10782035354B8001E0
:100890001818058310784000055B1078203580011A
:1008A0001818458310784000005B1478020020324D
:1008B000A4011B199A83B3E76B460222DA7124E084
:1008C000012951D06B46DA1DDB79254C5B001D5B9D
:1008D00010781035234B800118184584107840009B
:1008E000055B107810358001181885841078400059
:1008F000005B147802001032A4011B19DA846B46E5
:10090000DA1DDB790133DBB213706B4607331B78DA
:10091000DBB2052B01D901F03AF90029D0D16B46A1
:10092000DA1DDB790E4C5B001D5B107840350D4BFA
:1009300080011818458410784000055B1078403518
:1009400080011818858410784000005B147802003C
:100950004032A4011B19DA84D1E7C046109100107F
:100960008C910010D80600206B46DA1DDB79DC4C38
:100970005B001D5B10782035DA4B80011818458428
:1009800010784000055B10782035800118188584A8
:1009900010784000005B147802002032A4011B197B
:1009A000DA84ACE76B460222DA7124E001294AD0EE
:1009B0006B46DA1DDB79CA4C5B001D5B1078103585
:1009C000C84B80011818858510784000055B1078A9
:1009D000103580011818C58510784000005B147828
:1009E00002001032A4011B191A866B46DA1DDB794E
:1009F0000133DBB213706B4607331B78DBB2052B78
:100A000001D901F0C4F80029D0D16B46DA1DDB7999
:100A1000B34C5B001D5B10784035B24B8001181859
:100A2000858510784000055B1078403580011818E6
:100A3000C58510784000005B147802004032A401A4
:100A40001B191A86D1E76B46DA1DDB79A44C5B00D3
:100A50001D5B10782035A34B800118188585107810
:100A60004000055B1078203580011818C585107886
:100A70004000005B147802002032A4011B191A8682
:100A8000B3E76B460222DA7124E001294AD06B46B3
:100A9000DA1DDB79924C5B001D5B10781035914BB1
:100AA00080011818C58610784000055B1078103555
:100AB00080011818058710784000005B1478020048
:100AC0001032A4011B195A876B46DA1DDB790133FA
:100AD000DBB213706B4607331B78DBB2052B01D9F1
:100AE00001F055F80029D0D16B46DA1DDB797C4C3A
:100AF0005B001D5B107840357A4B80011818C58665
:100B000010784000055B1078403580011818058783
:100B100010784000005B147802004032A4011B19D9
:100B20005A87D1E76B46DA1DDB796D4C5B001D5BA4
:100B3000107820356B4B80011818C586107840005E
:100B4000055B107820358001181805871078400063
:100B5000005B147802002032A4011B195A87B3E706
:100B60006B460922DA7124E001294AD06B46DA1D6E
:100B7000DB795B4C5B001D5B10781035594B8001B5
:100B80001818858010784000055B107810358001BA
:100B90001818C58010784000005B147802001032ED
:100BA000A4011B191A816B46DA1DDB790133DBB214
:100BB00013706B4607331B78DBB20C2B01D900F0A6
:100BC000E6FF0029D0D16B46DA1DDB79444C5B008F
:100BD0001D5B10784035434B8001181885801078D4
:100BE0004000055B1078403580011818C5801078EA
:100BF0004000005B147802004032A4011B191A81E6
:100C0000D1E76B46DA1DDB79354C5B001D5B107854
:100C10002035344B80011818858010784000055B22
:100C20001078203580011818C58010784000005BCE
:100C3000147802002032A4011B191A81B3E76B4615
:100C40000922DA7124E001294ED06B46DA1DDB79E6
:100C5000234C5B001D5B10781035224B8001181867
:100C6000C58110784000055B107810358001181898
:100C7000058210784000005B147802001032A40155
:100C80001B195A826B46DA1DDB790133DBB2137014
:100C90006B4607331B78DBB20C2B01D900F077FFD2
:100CA0000029D0D16B46DA1DDB790D4C5B001D5B52
:100CB000107840350B4B80011818C5811078400022
:100CC000055B1078403580011818058210784000C7
:100CD000005B147802004032A4011B195A82D1E74C
:100CE0008C910010D80600206B46DA1DDB79DC4CB5
:100CF0005B001D5B10782035DA4B80011818C58128
:100D000010784000055B10782035800118180582A6
:100D100010784000005B147802002032A4011B19F7
:100D20005A82AFE76B460922DA7124E001294AD0E2
:100D30006B46DA1DDB79CA4C5B001D5B1078103501
:100D4000C84B80011818058310784000055B1078A7
:100D5000103580011818458310784000005B147826
:100D600002001032A4011B199A836B46DA1DDB794D
:100D70000133DBB213706B4607331B78DBB20C2BED
:100D800001D900F004FF0029D0D16B46DA1DDB79D0
:100D9000B34C5B001D5B10784035B24B80011818D6
:100DA000058310784000055B1078403580011818E5
:100DB000458310784000005B147802004032A401A3
:100DC0001B199A83D1E76B46DA1DDB79A44C5B00D3
:100DD0001D5B10782035A34B80011818058310780F
:100DE0004000055B10782035800118184583107885
:100DF0004000005B147802002032A4011B199A8382
:100E0000B3E76B460922DA7124E001294AD06B4628
:100E1000DA1DDB79924C5B001D5B10781035914B2D
:100E200080011818458410784000055B1078103553
:100E300080011818858410784000005B1478020047
:100E40001032A4011B19DA846B46DA1DDB790133F9
:100E5000DBB213706B4607331B78DBB20C2B01D966
:100E600000F095FE0029D0D16B46DA1DDB797C4C71
:100E70005B001D5B107840357A4B80011818458463
:100E800010784000055B1078403580011818858483
:100E900010784000005B147802004032A4011B1956
:100EA000DA84D1E76B46DA1DDB796D4C5B001D5BA4
:100EB000107820356B4B800118184584107840005D
:100EC000055B107820358001181885841078400063
:100ED000005B147802002032A4011B19DA84B3E706
:100EE0006B460922DA7124E001294AD06B46DA1DEB
:100EF000DB795B4C5B001D5B10781035594B800132
:100F00001818858510784000055B10781035800131
:100F10001818C58510784000005B14780200103264
:100F2000A4011B191A866B46DA1DDB790133DBB28B
:100F300013706B4607331B78DBB20C2B01D900F022
:100F400026FE0029D0D16B46DA1DDB79444C5B00CC
:100F50001D5B10784035434B80011818858510784B
:100F60004000055B1078403580011818C585107861
:100F70004000005B147802004032A4011B191A865D
:100F8000D1E76B46DA1DDB79354C5B001D5B1078D1
:100F90002035344B80011818858510784000055B9A
:100FA0001078203580011818C58510784000005B46
:100FB000147802002032A4011B191A86B3E76B468D
:100FC0000922DA7124E001294ED06B46DA1DDB7963
:100FD000234C5B001D5B10781035224B80011818E4
:100FE000C58610784000055B107810358001181810
:100FF000058710784000005B147802001032A401CD
:101000001B195A876B46DA1DDB790133DBB213708B
:101010006B4607331B78DBB20C2B01D900F0B7FD10
:101020000029D0D16B46DA1DDB790D4C5B001D5BCE
:10103000107840350B4B80011818C5861078400099
:10104000055B10784035800118180587107840003E
:10105000005B147802004032A4011B195A87D1E7C3
:101060008C910010D80600206B46DA1DDB79BD4C50
:101070005B001D5B10782035BB4B80011818C586BE
:1010800010784000055B107820358001181805871E
:1010900010784000005B147802002032A4011B1974
:1010A0005A87AFE76B461022DA7124E001294DD050
:1010B0006B46DA1DDB79AB4C5B001D5B107880352D
:1010C000A94B80011818858010784000055B1078C6
:1010D000803580011818C58010784000005B1478B6
:1010E00002008032A4011B191A816B46DA1DDB79DC
:1010F0000133DBB213706B4607331B78DBB2132B63
:1011000001D900F044FD0029D0D16B46DA1DDB790E
:10111000944C5B001D5B107880239B009C466544CB
:10112000914B80011818858010784000055B10787D
:101130006646654480011818C58010784000005B41
:1011400014788219A4011B191A81CEE76B46DA1DA7
:10115000DB79844C5B001D5B10780135FF35824BD9
:1011600080011818858010784000055B10780135E3
:10117000FF3580011818C58010784000005B147896
:10118000421CFF32A4011B191A81AEE76B461022E4
:10119000DA7124E001294DD06B46DA1DDB79714C00
:1011A0005B001D5B107880356F4B80011818C5817E
:1011B00010784000055B1078803580011818058292
:1011C00010784000005B147802008032A4011B19E3
:1011D0005A826B46DA1DDB790133DBB213706B4642
:1011E00007331B78DBB2132B01D900F0D0FC0029A8
:1011F000D0D16B46DA1DDB795A4C5B001D5B107851
:1012000080239B009C466544574B80011818C5817C
:1012100010784000055B1078664665448001181818
:10122000058210784000005B14788219A4011B1914
:101230005A82CEE76B46DA1DDB794A4C5B001D5BB8
:1012400010780135FF35484B80011818C58110789A
:101250004000055B10780135FF35800118180582C4
:1012600010784000005B1478421CFF32A4011B1967
:101270005A82AEE76B461022DA7124E001294DD084
:101280006B46DA1DDB79374C5B001D5B10788035CF
:10129000354B80011818058310784000055B1078E5
:1012A000803580011818458310784000005B147861
:1012B00002008032A4011B199A836B46DA1DDB7988
:1012C0000133DBB213706B4607331B78DBB2132B91
:1012D00001D900F05CFC0029D0D16B46DA1DDB7926
:1012E000204C5B001D5B107880239B009C4665446E
:1012F0001D4B80011818058310784000055B10789D
:101300006646654480011818458310784000005BEC
:1013100014788219A4011B199A83CEE76B46DA1D53
:10132000DB79104C5B001D5B10780135FF350E4BEF
:1013300080011818058310784000055B107801358E
:10134000FF3580011818458310784000005B147841
:10135000421CFF32A4011B199A83AEE76B46102290
:10136000DA7128E08C910010D806002001294DD0B8
:101370006B46DA1DDB79D24C5B001D5B1078803543
:10138000D04B80011818458410784000055B107818
:10139000803580011818858410784000005B14782F
:1013A00002008032A4011B19DA846B46DA1DDB7956
:1013B0000133DBB213706B4607331B78DBB2132BA0
:1013C00001D900F0E4FB0029D0D16B46DA1DDB79AE
:1013D000BB4C5B001D5B107880239B009C466544E2
:1013E000B84B80011818458410784000055B1078D0
:1013F0006646654480011818858410784000005BBB
:1014000014788219A4011B19DA84CEE76B46DA1D21
:10141000DB79AB4C5B001D5B10780135FF35A94BC8
:1014200080011818458410784000055B107801355C
:10143000FF3580011818858410784000005B14780F
:10144000421CFF32A4011B19DA84AEE76B4610225E
:10145000DA7124E001294CD06B46DA1DDB79984C17
:101460005B001D5B10788035964B800118188585D0
:1014700010784000055B1078803580011818C5850C
:1014800010784000005B147802008032A4011B1920
:101490001A866B46DA1DDB790133DBB213706B46BB
:1014A00007331B78DBB2132B00D970E30029D1D1AD
:1014B0006B46DA1DDB79824C5B001D5B1078802364
:1014C0009B009C4665447F4B8001181885851078E9
:1014D0004000055B10786646654480011818C58594
:1014E00010784000005B14788219A4011B191A8639
:1014F000CFE76B46DA1DDB79714C5B001D5B107822
:101500000135FF356F4B8001181885851078400034
:10151000055B10780135FF3580011818C5851078F6
:101520004000005B1478421CFF32A4011B191A868C
:10153000AFE76B461022DA7124E001294CD06B46EC
:10154000DA1DDB795E4C5B001D5B107880355D4BEE
:1015500080011818C58610784000055B107880352A
:1015600080011818058710784000005B147802008D
:101570008032A4011B195A876B46DA1DDB790133CF
:10158000DBB213706B4607331B78DBB2132B00D929
:10159000FDE20029D1D16B46DA1DDB79484C5B00B6
:1015A0001D5B107880239B009C466544454B800161
:1015B0001818C58610784000055B107866466544AB
:1015C00080011818058710784000005B1478821994
:1015D000A4011B195A87CFE76B46DA1DDB79384C1B
:1015E0005B001D5B10780135FF35364B8001181804
:1015F000C58610784000055B10780135FF35800105
:101600001818058710784000005B1478421CFF32E0
:10161000A4011B195A87AFE76B461722DA7124E041
:10162000012951D06B46DA1DDB79254C5B001D5B2F
:1016300010788035234B8001181885801078400081
:10164000055B1078803580011818C580107840003F
:10165000005B147802008032A4011B191A816B46CA
:10166000DA1DDB790133DBB213706B4607331B786D
:10167000DBB21A2B00D98AE20029D1D16B46DA1DE0
:10168000DB790F4C5B001D5B107880239B009C4630
:1016900065440C4B80011818858010784000055B6C
:1016A00010786646654480011818C580107840009F
:1016B000005B14788219A4011B191A81CFE7C04678
:1016C0008C910010D80600206B46DA1DDB79BD4CEA
:1016D0005B001D5B10780135FF35BB4B800118188E
:1016E000858010784000055B10780135FF3580015A
:1016F0001818C58010784000005B1478421CFF3237
:10170000A4011B191A81AAE76B461722DA7124E09B
:1017100001294CD06B46DA1DDB79AA4C5B001D5BBE
:1017200010788035A84B80011818C58110784000CA
:10173000055B10788035800118180582107840000C
:10174000005B147802008032A4011B195A826B4698
:10175000DA1DDB790133DBB213706B4607331B787C
:10176000DBB21A2B00D912E20029D1D16B46DA1D67
:10177000DB79944C5B001D5B107880239B009C46BA
:101780006544914B80011818C58110784000055BB5
:10179000107866466544800118180582107840006C
:1017A000005B14788219A4011B195A82CFE76B469B
:1017B000DA1DDB79834C5B001D5B10780135FF354A
:1017C000814B80011818C58110784000055B1078A6
:1017D0000135FF3580011818058210784000005B44
:1017E0001478421CFF32A4011B195A82AFE76B46E2
:1017F0001722DA7124E001294CD06B46DA1DDB791F
:10180000704C5B001D5B107880356F4B80011818A1
:10181000058310784000055B10788035800118182A
:10182000458310784000005B147802008032A401E8
:101830001B199A836B46DA1DDB790133DBB2137017
:101840006B4607331B78DBB21A2B00D99FE10029C6
:10185000D1D16B46DA1DDB795A4C5B001D5B1078E9
:1018600080239B009C466544574B800118180583D4
:1018700010784000055B10786646654480011818B2
:10188000458310784000005B14788219A4011B196D
:101890009A83CFE76B46DA1DDB794A4C5B001D5B10
:1018A00010780135FF35484B8001181805831078F2
:1018B0004000055B10780135FF358001181845831D
:1018C00010784000005B1478421CFF32A4011B1901
:1018D0009A83AFE76B461722DA7124E001294CD0D6
:1018E0006B46DA1DDB79374C5B001D5B1078803569
:1018F000354B80011818458410784000055B10783E
:10190000803580011818858410784000005B1478B9
:1019100002008032A4011B19DA846B46DA1DDB79E0
:101920000133DBB213706B4607331B78DBB21A2B23
:1019300000D92CE10029D1D16B46DA1DDB79214C8D
:101940005B001D5B107880239B009C4665441E4B0A
:1019500080011818458410784000055B10786646B1
:10196000654480011818858410784000005B147865
:101970008219A4011B19DA84CFE76B46DA1DDB79E3
:10198000104C5B001D5B10780135FF350E4B80015C
:101990001818458410784000055B10780135FF3534
:1019A00080011818858410784000005B1478421C70
:1019B000FF32A4011B19DA84AFE76B461722DA71F4
:1019C00029E0C0468C910010D806002001294CD097
:1019D0006B46DA1DDB796F4C5B001D5B1078803540
:1019E0006D4B80011818858510784000055B1078D4
:1019F000803580011818C58510784000005B147888
:101A000002008032A4011B191A866B46DA1DDB79AD
:101A10000133DBB213706B4607331B78DBB21A2B32
:101A200000D9B4E00029D1D16B46DA1DDB79594CDD
:101A30005B001D5B107880239B009C466544564BE1
:101A400080011818858510784000055B107866467F
:101A5000654480011818C58510784000005B147833
:101A60008219A4011B191A86CFE76B46DA1DDB79B0
:101A7000484C5B001D5B10780135FF35464B8001FB
:101A80001818858510784000055B10780135FF3502
:101A900080011818C58510784000005B1478421C3E
:101AA000FF32A4011B191A86AFE76B461722DA71C1
:101AB00024E001294BD06B46DA1DDB79354C5B0005
:101AC0001D5B10788035344B80011818C58610785E
:101AD0004000055B10788035800118180587107864
:101AE0004000005B147802008032A4011B195A8761
:101AF0006B46DA1DDB790133DBB213706B460733BB
:101B00001B78DBB21A2B42D80029D2D16B46DA1DE2
:101B1000DB79204C5B001D5B107880239B009C468A
:101B200065441D4B80011818C58610784000055B80
:101B300010786646654480011818058710784000C3
:101B4000005B14788219A4011B195A87D0E76B46F1
:101B5000DA1DDB790F4C5B001D5B10780135FF351A
:101B60000D4B80011818C58610784000055B107871
:101B70000135FF3580011818058710784000005B9B
:101B80001478421CFF32A4011B195A87B0E702B037
:101B900070BDC0468C910010D806002010B502F030
:101BA000BFF910BDF0B5DE4657464E464546E0B596
:101BB00085B001AADB4B180018C818C2038813802F
:101BC00000256B46DD706B469E1C9D7004F098FBF3
:101BD000FA200121400102F0E9F9072000F0D4F9D0
:101BE000082000F0D1F9092000F0CEF90A2000F019
:101BF000CBF9102000F0C8F9112000F0C5F90E2033
:101C000000F0C2F90F2000F0BFF9192000F0BCF974
:101C10000C2000F0B9F90D2000F0B6F9052000F015
:101C2000B3F9042000F0B0F9062000F0ADF915205A
:101C300000F0AAF9142000F0A7F9132000F0A4F98D
:101C4000122000F0A1F9D024240680239B46636271
:101C500080339A4663620133FF339946636280237F
:101C6000DB009846636280277F02676280239B02C5
:101C700063628022D2016262802109026162802057
:101C80008004606280235B01636280229201626251
:101C900020236362103B63623033636280239B03C3
:101CA000A36280235B03A36280231B03A3628023C0
:101CB000DB02A3629C499D4807F07CF99C4B0422FF
:101CC0001A600121012000F047F90121002000F0F5
:101CD00043F90121032000F03FF90121022000F027
:101CE0003BF9944B9449FA2000224000FEF73BFB5D
:101CF000924B934900220120FEF735FB5946A16122
:101D00005146A1614946A1614146A161A761802375
:101D10009B02A3618022D201A26180210902A161FC
:101D200080208004A06180235B01A3618022920156
:101D3000A26135701EE0D0242406202565610120B3
:101D4000002101F093FAA5610120002101F08EFA33
:101D50006B46DA1CDB780133DBB213706B4603335E
:101D60001B78DBB21F2BE6D96B469A1C9B7801339C
:101D7000DBB213706B4602331B78DBB21F2B03D828
:101D80006B460022DA70E9E76B4600229A7038E071
:101D90006B46981C9A786B4B5200D15A00786B4670
:101DA00003331B788031684A40011B185B00D15215
:101DB0006B46DA1CDB780133DBB213706B460333FE
:101DC0001B78DBB21F2B16D86B4602331B78DBB2B5
:101DD0000F2BDDD86B46981C9A785A4B5200D15A7B
:101DE00000786B4603331B781031574A40011B18AB
:101DF0005B00D152DCE76B469A1C9B780133DBB267
:101E000013706B4602331B78DBB21F2B03D86B4673
:101E10000022DA70D2E7D0231B0620229A61103A02
:101E20009A6130325A6100251CE048480A2200219C
:101E300004F010F955236A4613715471022201A966
:101E40003A4807F04DF9424BFA2252001A806B468D
:101E50000022DA706B4603331B78DBB2172B50D9A4
:101E6000FEF7A0FAFFF79AFED02212065468A40CDF
:101E700001210C40E4005368DB0C0B409B00E4188C
:101E800053681B0D0B405B00E41853685B0D194051
:101E900064182F4B1B889BB2002B01D1002CC4D19E
:101EA0002C4B1B889BB2002BD1D1002CCFD1274CBF
:101EB0000A220021200004F0CDF80A22002101A806
:101EC00004F0C8F855236A461371453B5371063B2D
:101ED000220001A9154807F00BF91E4BFA22520007
:101EE0001A802379552BB2D1184B5B79102BAED1C8
:101EF000164BDD792D041A7A1202AD185B7AED18B3
:101F0000A5E76B46DC1CDB78DBB22900D940012356
:101F100019402078C0B2FEF775FB23780133DBB29D
:101F2000237097E780910010A086010000C0034055
:101F300004F00340C006002045030010A80600205E
:101F4000110300108C910010D8060020D80E00203C
:101F5000541B0020521B002010B58300084A9446F1
:101F600063441A6840246240803414408022520145
:101F700013431C60C000034B9C466044416010BD8D
:101F800004C001400040014010B501238340D0222D
:101F90001206936293610521FFF7DEFF10BD00007A
:101FA000EFF3108072B6034B1B68002BFBD0BFF31E
:101FB0005F8F70472C0100D0BFF35F8F024B002270
:101FC0001A6080F3108870472C0100D0F8B5060025
:101FD0000C001500FFF7E4FFE308F718F15C072297
:101FE0002240012393400B4205D1DBB20B433B70EF
:101FF000FFF7E2FFF8BD2100280001F0C9FDF0B5B0
:1020000083B00600019114001F00FFF7C9FF00E034
:102010000134BC420CD8E308F518F35C07212140D9
:1020200001228A401A42F3D1D2B21A432A7001E047
:1020300001246442FFF7C0FF002C02DB200003B044
:10204000F0BD019B002BF9D0089801F0A1FD000024
:10205000034B1B6802201840431E9841C0B27047D2
:1020600000C00640002307E0054A9A189200BFF31B
:102070005F8F0021116001331F2BF5D97047C046D7
:1020800040000034054A1078431CDBB21370172B54
:1020900002D9130010221A707047C046A004002015
:1020A00010B582B00100054C054B00931F23182288
:1020B0002000FFF7A4FF02B010BDC0464814002066
:1020C000D8910010074B9B68103080001950BFF367
:1020D0005F8FBFF35F8F044B0021196082F310887C
:1020E0007047C04600ED00E0240100D010B5091A89
:1020F0000B1F0A4A94466144094A914208D8DA07FC
:1021000006D45B105B055B0D0648184380B210BD1A
:10211000054B064A0648992101F0A0FCFC07000087
:10212000FE0F000000E0FFFFF49100105494001037
:102130002492001010B5091A04394A08090B08D175
:102140004905490D064B0B430380064B134343805F
:1021500010BD054B054A0648A12101F07FFCC04691
:1021600000F0FFFF00F8FFFF6492001028940010B9
:102170002492001001238340034A10681840431E34
:102180009841C0B27047C04600E100E0002904D089
:10219000034B1860034B18607047034B1860FBE754
:1021A00080E200E000E100E080E100E010B5012302
:1021B00083401800FFF7EAFF10BD000001238340B1
:1021C000014A13607047C04600E200E0024B9B6882
:1021D00010308000C058704700ED00E010B5FFF7E8
:1021E000F5FF002805D0054BC01A2F2803D8012081
:1021F00010BD0020FCE70020FAE7C046A404002040
:1022000070B504000D00EFF3108672B60C4B1B681E
:10221000002BFBD0BFF35F8F2000FFF7D7FF094BE8
:10222000984201D0A84205D1320029002000FFF7D2
:1022300049FF70BD044B054A05487C2101F00EFCA6
:10224000240100D0CD010010749200108894001079
:1022500024920010F0B5DE4657464E464546E0B59E
:1022600089B0814601911500EFF3108A72B6744B64
:102270001B68002BFBD0BFF35F8F724B0027DF572B
:10228000002F40DB7C00E419A4006F4824180622CC
:10229000A2566C4B1A706D4B9A684B4610339B00DC
:1022A000D35898461E00181A2F2838D9684B9845DD
:1022B0002FD105AE674B338067497B009B46D81909
:1022C0008000614B984640440230FFF70FFF70805A
:1022D000624BB380FF23B371F571019B07935F4499
:1022E000BB00434407CE07C301231C43A04652460C
:1022F00041464846FFF7E6FE09B0F0BCBB46B24691
:10230000A946A046F0BD564B564A5748CD2101F08C
:10231000A5FB564B534A5448D42101F09FFB01388A
:102320000C2102F099FF002912D101239E43B346EC
:1023300033000026DA79AA4211D90621595600291C
:102340000CDB4A00521892003F491E008B18F1E73F
:10235000474B444A4448E02101F080FB1E00002E18
:102360003BD005AB434A1A80813A5A800623F35684
:102370000293002B18DABD20000205AB9B46988023
:10238000029A9A71DD71019A0792301D2100FFF7C0
:10239000ADFEB080B7712C4B7A00D21992009B1819
:1023A0005A4613CA13C3A2E77800C0198000264B0F
:1023B000C0180430311DB388DA0A1C2A07D15B0526
:1023C0005B1502335B00C918FFF790FED5E72A4B77
:1023D0002A4A2548A72101F041FB05AE1D4B338059
:1023E0001D497B000293DB199B00174A90461A0097
:1023F00042440392901CFFF779FE7080039A101DEF
:102400005946FFF773FEB0801D4B5A464146521A9B
:10241000524153431B0DB371F571019A0792029B10
:102420009C466744BB00434407CE07C3114B5A4642
:102430001380813B538001231C43A04657E7C046CD
:10244000240100D05A1B0020A404002000ED00E06D
:10245000CD01001000A1FFFFD404002000BDFFFF4C
:10246000AC9200107094001024920010D4920010CE
:10247000FC9200100148000070930010609400105E
:10248000AAAA0000F0B5CE46474680B583B0060044
:102490000D00EFF3108872B6554B1B68002BFBD074
:1024A000BFF35F8F534B9A6834001034A300D758A2
:1024B000514B9F4207D0AF4200D197E001974F4B5D
:1024C000FB1A2F2B09D9424639003000FFF7FAFDDD
:1024D00003B0C0BCB946B046F0BD3000FFF74AFEBD
:1024E000814600213000FFF761FEBFF35F8FFDF7EB
:1024F000BAFE002801D0844211D10123019C9C43E3
:102500000021A368AB4212D00622A256002A0DDB9E
:1025100053009B189B00394A2100D418F1E7384B2F
:10252000384A2C213848FF3101F098FA2100AB429B
:1025300055D106256557002D37DB304B6A005219FF
:1025400092009B189A68A260DA79E2719B795BB27B
:10255000A371002B10DABD200002A080274B6A0077
:10256000521992009B18294A1178997115704946A1
:102570003000FFF71BFEA6E7201D6B005B199B00D8
:102580001E4A9B18191D9B88DA0A1C2A07D15B0575
:102590005B1502335B00C918FFF7A8FDDDE71C4B94
:1025A0001C4A1948A72101F059FA002812D1002924
:1025B0000ED0FF238B71184B8B8014490B78A371BD
:1025C0000E4A164BA41A644163431B0D0B70CEE7F1
:1025D000094FF2E71249201DFFF7ACFDC7E7114B89
:1025E000084A60210848FF3101F038FA024F6AE7D3
:1025F000240100D000ED00E0CD010010A404002073
:102600008893001040940010249200105A1B002060
:10261000709300106094001000BDFFFFAAAA000094
:10262000DE040020AC93001070B5040001260643C0
:102630002D4BF31A2F2B28D8FDF715FE00282BD091
:10264000EFF3108C72B6294B1B68002BFBD0BFF345
:102650005F8F254A264D2100891A49414D432D0D92
:102660006DB2244B9B6880001B58B3421BD00021E5
:10267000032932D81C4B4A00521892009B189B79B0
:102680005BB2AB421FD00131F2E71B4B1B4AC221A8
:102690001B48490001F0E2F91A4B184A88211848F2
:1026A000FF3101F0DBF9134B9B68174A1A50174BA7
:1026B0001A78A2711D70BFF35F8F0C4B00221A6055
:1026C0008CF3108870BD084B4A0050188000181811
:1026D000FF2686710E4A8280E9E70E4B074ACC211D
:1026E0000748490001F0BAF9A4040020240100D0F1
:1026F000AAAA000000ED00E0B49300100C940010B2
:1027000024920010DC930010CD0100105A1B002011
:1027100000BDFFFFE89300100022044B02E00449D3
:1027200002C30132072AFAD97047C04600E400E02C
:102730008080808000B583B00100D0231B061B6819
:102740000648C018064B009305230022FFF757FCEC
:10275000002801DB1F23181A03B000BD501B002006
:10276000F0930010024B9C46614489000160704761
:102770004000003410B50C00CB68834207D10B69D0
:1027800008009847002809D02068616810BD064BF2
:10279000064A96210648490001F060F90023E360EB
:1027A00000200021F2E7C046A494001068970010B2
:1027B000B894001070B505000C00080000F006FE8B
:1027C000200000F0EBFE0849200000F02BFEFFF790
:1027D00059FC064B9C466044800068602C75044B95
:1027E000A400E55070BDC046E92A00104000003446
:1027F000041900200A4B1A68EFF3108172B61368AF
:10280000002BFCD0BFF35F8F054B1B68BFF35F8FBE
:1028100000221A6081F3108840BF00200021704719
:10282000201B002010B5002920D003681B7B994293
:102830001CD88368154CA446614409015B181C68C8
:102840005968002A18D003681B7B9A4214D8836801
:102850000E488446624412019B181A685B68012086
:102860008B4201D80ED00020C0B210BD084B094ADF
:1028700009483B2101F0F2F8054B064A06483B2186
:1028800001F0ECF8A242EFD8EDE7C046FFFFFF0FE2
:10289000F0940010D0970010B894001010B50029E3
:1028A0001DD0037B99421AD804684B005B18033B88
:1028B000E418002919D0002A1DD0914221D0002A05
:1028C00025D0037B9A4222D8006853009B18033B13
:1028D000C3189970217800291FD1227010BD104BA8
:1028E000104A1148682101F0B9F8104B104A0E48FF
:1028F0006F3101F0B3F80F4B0D4A0B48702101F016
:10290000ADF80D4B0A4A0848712101F0A7F8044BB5
:10291000044A0548682101F0A1F859702270DDE7EA
:10292000249500103C980010409500108C950010E4
:102930001898001098950010A495001070B5060026
:102940000D001400002914D0002A14D043688068B8
:102950009847002806D0220029003000FFF79EFF8C
:10296000280007E02A0021003000FFF797FF200031
:1029700000E0100070BD0800FCE70000F0B583B077
:102980000500009201930AAB1C780BAB1F78002C5A
:1029900026D003685A7B944207D10123002B19D11A
:1029A000002C3AD1200003B0F0BD002C0CD01A7BD3
:1029B000944209D81A6863001B19033BD3189B780B
:1029C000002BEBD00123E9E73C4B3D4A3D48682111
:1029D00001F044F83C4B3D4A3D48652101F03EF88A
:1029E00003689C7B002CDBD011D01A7B94420ED85C
:1029F0001A6861000919033952185178997300292E
:102A000000D1D9730023937053701370C8E72B4B18
:102A10002B4A2C48682101F021F8002C37D02B6874
:102A20001B7B9C4233D8AB682A4AA21812019B1820
:102A3000009A1A60019A5A60089A9A60099ADA60B4
:102A40002E68002C29D02ED0337B9C422BD83368A3
:102A500062001219033A9B1800229A705A701A7079
:102A6000717B22003000FFF769FF7073844299D1B7
:102A7000287D009A019B00F01DFD061E01D0002F4D
:102A800017D00C9B002B00D18CE71E708AE7124BED
:102A9000124A0F483B2100F0E1FF114B114A09484F
:102AA000A52100F0DBFF054B054A0648682100F030
:102AB000D5FF2868210000F01FFFE2E724950010F1
:102AC0003C98001040950010BC95001048980010EC
:102AD000B8940010FFFFFF0FF0940010D097001083
:102AE000B49400102C980010F0B5DE4657464E46C0
:102AF0004546E0B58BB0099000230893B24B8200A5
:102B0000D55833E0B14BB24AB2483F2100F0A6FF9E
:102B1000B14BB24AB2483B2100F0A0FFB14BB24AE0
:102B2000AF488C2100F09AFFB04BAF4AAC489021DF
:102B300000F094FFA84BAE4AA948402100F08EFF58
:102B400043461A685B68099800F0B4FC00239B4672
:102B50009A466B68BFF35F8F00221A6089F3108872
:102B60005346002B53D1002800D126E100F03AFC57
:102B700002000B1EC6DB002000210690079168684A
:102B8000EFF3108972B601680029FCD0BFF35F8FA4
:102B90002868447B002C35D0BAD0017B8C42B7D852
:102BA000AE68944961180901B046884441460E68F0
:102BB0004F68B61A9F41002FC2DC01D1002EBFD151
:102BC000002100F08FFEA042A8D143461A685B683E
:102BD0000692079343469B689A464346DB689B46AA
:102BE0005346002BA0D0002CA4D02B681B7B9C420A
:102BF000A0D8EA68631ED35C08931B0218432861BF
:102C00000020A6E700239B469A460020A1E7089BE8
:102C10001B022343984659461800D04706000F0070
:102C20006A68EFF3108972B6136859424B41D9B202
:102C3000002BF9D1BFF35F8F002F26DB002F52DD71
:102C40002B69002B53D0434572D100F0CBFB02001F
:102C50000B1E73DB0100180092197B41984202D8C9
:102C600004D1914202D901225242D317002B6BDBCF
:102C7000002104910131039102945946019151467A
:102C800000912800FFF77AFE49E02B69002BD5D090
:102C900043451CD1069A079B10001900921BBB41AB
:102CA000994202D804D1904202D901225242D3174C
:102CB000002B12DB0021049101310391029459464B
:102CC0000191514600912800FFF758FE27E04A4B3A
:102CD000454A43489F2100F0C1FE3C4B3C4A3D48D9
:102CE0003F2100F0BBFE002F01D1002EA8D12A68A1
:102CF000002C44D0537B9C422CD1012100293ED191
:102D0000D37B002B41D1D473002C50D02B681B7B7C
:102D10009C424CD8EA68013C135D013313550023F3
:102D20002B616A68BFF35F8F136089F310881DE71A
:102D3000314B2D4A2A48A22100F090FE234B244A11
:102D400024483F2100F08AFE204B214A21483F21A0
:102D500000F084FE002C0CD0137B9C4209D8106834
:102D600063001B19033BC3189B78002BC6D00121BD
:102D7000C4E7224B224A2348682100F06FFE224B11
:102D8000224A2048F62100F069FE002B09D0117B71
:102D90008B4206D810685900CB18033BC3185C70EF
:102DA000B1E7164B164A1748682100F057FE0A4B48
:102DB0000F4A0B48402100F051FE0BB0F0BCBB465F
:102DC000B246A946A046F0BD04190020E4950010C3
:102DD0009C97001000960010F0940010D0970010FF
:102DE000B894001048960010B49700106096001038
:102DF000F4970010FFFFFF0F6C9600102495001051
:102E00003C98001040950010A896001008980010FB
:102E100010B50A4B5B68002B04D009480A21FFF764
:102E2000A1FC10BD054C074A20682300102100F0CA
:102E30007DFC03212000FFF7BDFCEEE7EC04002041
:102E4000201B00202528001010B5064B5B68002BC6
:102E500001D0044810BD044B044A05485C2100F031
:102E6000FDFDC046EC040020CC960010DC9700105D
:102E7000B8940010F0B5DE4657464E464546E0B5DC
:102E80008BB0804616001F00149B9A46159B9946EE
:102E900016AB1B789B461F2302AA9446634400226C
:102EA0001A7036E0002809D042461268127B904220
:102EB00004D84246D168421E8A5C4CE0454B464AE3
:102EC0004648402100F0CAFD0798002B79D05B46A8
:102ED000002B76D04946D04704000D0003000B4379
:102EE00000D175E000294ADB00F07CFA02000B1EDD
:102EF00059DB0100180012196B41984202D804D125
:102F0000914202D901225242D317002B51DB160005
:102F10001F0043465A68EFF3108472B61368594293
:102F20004B41D9B20791002BF8D1BFF35F8F1F330C
:102F300002AA9446634404930023039302934B46EE
:102F400001935346009332003B004046FFF716FDC5
:102F5000031EA7D1020041464968BFF35F8F0025D9
:102F60000D6084F31088002B29D01F2302A98C4602
:102F700063441B78002BA7D112021043A5E7300051
:102F80003900361BAF41B94202D804D1B04202D950
:102F900001267642F717002FBBDA114B114A12486F
:102FA0003F2100F05BFD0E4B0E4A0F483F2100F021
:102FB00055FD0B4B0B4A0C483F2100F04FFD012003
:102FC00040420BB0F0BCBB46B246A946A046F0BD9D
:102FD0000798F6E7F0940010F4970010B8940010EA
:102FE000E49500109C97001000960010F8B50400BE
:102FF0004268EFF3108572B6136858424341D8B265
:10300000002BF9D1BFF35F8FCBB22268567BB3425E
:103010001BD10120002847D0206988422AD0090A04
:10302000C9B2002B2DD02068007B834229D8E668E6
:10303000581E305C88422AD000206368BFF35F8F3F
:1030400000221A6085F31088F8BD002B0CD0167B87
:10305000B34209D817685E00F618033EBE19B67869
:10306000002ED7D00120D5E7124B134A1348682110
:1030700000F0F4FC124B134A85211348490000F07C
:10308000EDFC124B124A1048402100F0E7FC1900F9
:10309000100000F031FC0028CFD10E4B094A12215C
:1030A0000948FF3100F0DAFC23698B42C5D10023C7
:1030B0002361C2E7249500103C9800104095001051
:1030C000F096001084970010B8940010F09400104F
:1030D000F497001014970010F0B585B007000C9E0F
:1030E0001100194301D101220023B7600A9931610F
:1030F000326073600B997161D8170100424014006F
:1031000043401D00241A8D4100F06CF902000B1E93
:103110001ADB0100180012196B41984202D804D141
:10312000914202D901225242D317002B12DB012116
:10313000029101960A4900913800FFF79BFEF0606A
:10314000C043C00F05B0F0BD064B074A07483F21FA
:1031500000F084FC034B044A04483F2100F07EFC4D
:1031600075270010E49500109C9700100096001041
:10317000F0B587B006000F00FDF775F800281FD1E5
:1031800006246442E517A4197D41BD4202D803D14B
:10319000B44201D900240025002D14DB04940595C8
:1031A00000F020F902000B1E13DBA41A9D41002D34
:1031B00017DC14D03000390000F020F907B0F0BD62
:1031C000234800F0E5FC234B234A24483F2100F02C
:1031D00045FC204B204A21483F2100F03FFC002CB9
:1031E000E8D0FFF731FE0023029301931C4B0093BC
:1031F000049A059BFFF73EFE002818DADAE7002361
:1032000000E00023002BD5D1164B1A68EFF3108194
:1032100072B61368002BFCD0BFF35F8F114B1B6895
:10322000BFF35F8F00221A6081F3108820BF0499DA
:10323000059A0D4B5B6A9A42E3D80B48806A884234
:1032400003D29A42DBD00123DCE70123DAE7C04650
:1032500018970010E49500109C970010009600103D
:10326000F5270010201B002000400540F8B50400A1
:103270000D0000F0B7F802000B1E10DB2000290043
:10328000801859418B4202D804D1824202D90120D0
:103290004042C117002908DBFFF76AFFF8BD064B63
:1032A000064A07483F2100F0D9FB034B034A044874
:1032B0003F2100F0D3FBC046E49500109C9700101E
:1032C0000096001070B584B006000C00FFF7BCFD3E
:1032D000002302930193194B009332002300FFF760
:1032E000C9FD051E11DD20BFFFF7AEFD2900FFF768
:1032F0007DFE134B5B6A9C421BD8114A926AB24214
:103300001AD29C4213D0012014E00D4B5B6A9C4200
:1033100009D80B4A926AB24207D29C4201D00120DE
:1033200008E0002006E0002004E0012002E0002088
:1033300000E0002004B070BD0120FBE7F52700107D
:103340000040054070B5EFF305833F20184010386A
:10335000EFF3108C72B6184B1B68002BFBD0BFF339
:103360005F8F012319008140144A5163144A127877
:103370001400C440234213D0104B5C6A114B8500EB
:10338000EB589C4205D3104BEB580D4C8A432270EE
:1033900007E00A4A031D9B0099589950002300E05A
:1033A0000023BFF35F8F044A002111608CF3108863
:1033B000002B00D0984770BD280100D00040054088
:1033C0005E1B00202C1B00203813002010B50100CC
:1033D000024A034B1800FEF7F9FD10BD609800107B
:1033E000591B0020044B5B6A034A906A1900536A18
:1033F0009942F9D17047C04600400540084B5B6ACE
:1034000001E0074B5B6A8B42FBD301E0044B5B6A34
:103410008B4203D1024B9B6A8342F7D37047C0466D
:103420000040054070B504000E00EFF3108572B641
:103430001B4B1B68002BFBD0BFF35F8F002E1CD0F3
:103440002000FEF7C3FE174B83420BD0190020006B
:10345000FEF7D6FE01212000FEF7A8FE0123A340BF
:10346000114A1360114BA400E650BFF35F8F0C4B61
:1034700000221A6085F3108870BD0C4BA200002159
:10348000D1500122A2400A490B7893430B700549A1
:103490002000FEF7F7FF00212000FEF787FEE4E79B
:1034A000280100D045330010386005403813002053
:1034B0005E1B0020F0B5DE4600B584B004001500A8
:1034C00001921E000293FFF78DFF03958E4202D8F2
:1034D0004ED185424CD9EFF3108B72B6274B1B6847
:1034E000002BFBD0BFF35F8F254A17780125A5403D
:1034F000EBB23B431370234B5D63221D9200019995
:10350000D150214AA100029888501B6A2B4212D147
:103510001C4B1B6C2B4208D00020BFF35F8F174B56
:1035200000221A608BF3108823E0184B184A1948C0
:10353000C12100F093FAFFF755FF8E4214D802D153
:10354000039B834210D80E4B1B78BB420ED00D4B11
:103550001D625D631F222240012393400E4A1360C7
:10356000074B1F700120D8E70020D6E70120D4E7E1
:10357000012004B080BCBB46F0BDC046280100D08D
:103580005E1B0020004005402C1B0020849800108A
:10359000EC980010A898001080E200E0EFF3108C87
:1035A00072B60B4B1B68002BFBD0BFF35F8F012360
:1035B0008340084A136208490A789A430A70BFF3A5
:1035C0005F8F034B00221A608CF310887047C0464F
:1035D000280100D0004005405E1B002010B50029E6
:1035E0001DD0037B99421AD804684B005B18033B3B
:1035F000E418002919D0002A1DD0914221D0002AB8
:1036000025D0037B9A4222D8006853009B18033BC5
:10361000C3189970217800291FD1227010BD104B5A
:10362000104A1148682100F019FA104B104A0E4850
:103630006F3100F013FA0F4B0D4A0B48702100F068
:103640000DFA0D4B0A4A0848712100F007FA044BA5
:10365000044A0548682100F001FA59702270DDE73C
:1036600024950010F4990010409500108C950010DE
:10367000E099001098950010A495001070B5060010
:103680000D001400002914D0002A14D0436880686B
:103690009847002806D0220029003000FFF79EFF3F
:1036A000280007E02A0021003000FFF797FF2000E4
:1036B00000E0100070BD0800FCE7000010B500231A
:1036C000437301338373037BC3730123027B9A42E9
:1036D00013D9002B0BD0027B934208D801685A0003
:1036E000D218033A8A180133DBB25370EEE70C4B61
:1036F0000C4A0D48682100F0B1F9002A09D0924225
:1037000007D8016853009B18033BCB1800225A705E
:1037100010BD034B034A0448682100F09FF9C046DE
:1037200024950010F49900104095001010B5017315
:1037300042608360FFF7C2FF10BD000070B5040057
:10374000081E00D170BD002931D0237B99422ED8AC
:1037500022684B005B18033BD3185A78002AF1D03B
:103760002BD0237B9A4228D8216853009B18033B17
:10377000CB185D7800215970002824D0237B984213
:1037800021D8216843001B18033BCB180021597036
:1037900001002000FFF772FF060029002000FFF75C
:1037A000CDFF020031002000FFF768FFCAE7094B98
:1037B000094A0A48682100F051F9064B064A0748B1
:1037C000682100F04BF9034B034A0448682100F0DC
:1037D00045F9C04624950010F4990010409500105A
:1037E00070B505000C001600002927D02CD0037BF3
:1037F000994229D803684900091903395B185A7896
:10380000002A27D19A78002A2AD11978FFF796FF43
:103810000300002E03D0EA7B002A27D1EC73002B93
:1038200036D1002C47D02B7B9C4244D82A686300B9
:103830001B19033BD31800225A7070BD214B224A3A
:103840002248382100F00AF9214B224A22486821F7
:1038500000F004F9214B1C4A1C483A2100F0FEF804
:103860001F4B194A19483B2100F0F8F8002A09D0EB
:10387000297B8A4206D82E6851008A18033AB2186A
:103880005470CBE7124B134A1348682100F0E6F856
:10389000002B0AD02A7B934207D82A6843001B18C2
:1038A000033BD31800229A70BBE7094B094A0A4828
:1038B000682100F0D3F8064B064A0748682100F05B
:1038C000CDF8C04608990010CC990010109900104E
:1038D00024950010F49900104095001048990010AC
:1038E0007099001070B504000A00457B2900FFF7AD
:1038F00077FF6073280070BD70B50400002966D0A2
:10390000437B8B420ED0002911D0037B99420ED805
:1039100005684B005B18033BED18AB78002B0CD10E
:10392000002055E00121FFF7DDFF012050E0294B89
:10393000294A2A48682100F091F8002B1FD0027B09
:1039400093421CD800685A00D318033BC218C35CCA
:103950008B421AD0002B1BD0227B934218D82068B0
:103960005A00D318033BC01843788B4216D0002B63
:10397000F0D11B4B1B4A1C48672100F06FF8154B18
:10398000154A1648682100F069F86B78137007E053
:10399000104B114A1148682100F060F86B784370B1
:1039A0000023AB706B7001222000FFF719FF0200AB
:1039B000617B814205D02000FFF760FE607301202B
:1039C00006E00A4B074A08486D2100F047F800203E
:1039D00070BDC04624950010F49900104095001069
:1039E000E8930010B49900101099001094990010F9
:1039F00010B50400FEF746FB01002000FEF7B2FE02
:103A0000FF232371BFF35F8F10BD10B50400FEF7D5
:103A100039FB01002000FEF7A5FEFF2323710023E0
:103A20006371BFF35F8F10BD034B9C4661448900F7
:103A30000160BFF35F8F70474000003410B5040091
:103A40000120FEF72DFB01002000FFF7EDFF10BD68
:103A500000BEFDE710B5FFF7FBFF000030B583B0F7
:103A60000D001900002A0DD0084B002A0CD0084C7C
:103A7000019200932B000200200002F035FC01208F
:103A8000FFF7E6FF034BF0E7024AF0E7C89A0010A1
:103A9000D89A0010D49A001070B52B4B2B4A1A609C
:103AA0002B4B2C4A1A602C4B9A682A4B9343FAD121
:103AB0002A4C01E008CC9847294B9C42FAD300F0ED
:103AC00001F9234B274A1A60234B9B68DB43DB0138
:103AD000FAD1254B40229A675A671A67DA66234C57
:103AE00009E0234B234A24488321FFF7B7FF200036
:103AF000FFF77EFF0834214B9C4209D22368002B3C
:103B0000F5D0012BEDD12000FFF77FFF0834F2E75D
:103B10001B4DA9681B4CC022200002F0A1FAAC602A
:103B2000FCF7A1FB002800D000BEFEF79BFAFEF7D1
:103B3000F3FDFFF76DF9144C01E008CC9847134BE7
:103B40009C42FAD370BDC04600E00040BFCDFBFEF2
:103B500000F00040FE7F3C0000C0004088050020CF
:103B600098050020FFFFFF0100F0014080050020C4
:103B7000089B0010809B0010289B001088050020E7
:103B800000ED00E00000002098050020A0050020C6
:103B90000FB400B583B0084802F074FB049B002BFF
:103BA00007D005A90191180002F07CFB034802F040
:103BB00069FB0120FFF74CFF6C9B00107C9B001001
:103BC000F8B5DE4657464E464546E0B506000F00BE
:103BD00015000A9A93424ED31A0E92461B0298463B
:103BE0000A9A00234046514601F078FB8146740052
:103BF000A419A4002E4B9C4664446368834200D2FF
:103C00006060331FDBB29B46012B3AD9C0239B0176
:103C10002343802212011A60264BB200D15800299A
:103C200005D0586901F018FB01300138FDD16D0154
:103C300023685D40E0222A4080235B0123431A6011
:103C40005A46012A28D980239B012343802212014E
:103C50001A604B4663604A4600234046514601F0D5
:103C60003DFB144BB60098510120F0BCBB46B24658
:103C7000A946A046F8BD104B104A11482D21FFF768
:103C8000EDFE012FC2D1C0239B01234303221A6002
:103C9000A368DB07FCD5CAE72168794003220A4004
:103CA0001A60A3680125BD401D42FAD0CBE7C0468B
:103CB000008000404C140020909B0010E89B0010F6
:103CC000A49B001030B583B00C2000F021F9FEF762
:103CD000BFF900280DD0002304E02E4A99002E4899
:103CE00088500133092BF8D92A4B2C4A5A6203B069
:103CF00030BD2B4B00229A6700F088F9294B012236
:103D00001A60274B5B6C012BFBD1274B03221A60F7
:103D1000234B9B6B012BFBD1013300930433234ACC
:103D20000121234800F054F805230093214A012182
:103D3000214800F04DF8214B00930022022104207D
:103D4000FFF73EFF1E4D00952B00002201210520AC
:103D5000FFF736FF104C00942300002200210720BB
:103D6000FFF72EFF00942300002200210820FFF718
:103D700027FF0A4B00932300002200210920FFF7B0
:103D80001FFF00952B00002200210620FFF718FFDF
:103D9000ADE7C0464C140020006CDC021BB70000ED
:103DA000008000403CB0004030B00040002F685917
:103DB00000800240008C864700C00240001BB70014
:103DC00040597307014B8000C05870474C140020C5
:103DD000F0B5C64600B504000F0090461D000C204B
:103DE00001F03AFA06003D4A42443D4B9A4243D81C
:103DF00043011B1A9901C91AC900091889014046D3
:103E000001F02AFA0200103A98235B009A4239D84E
:103E10006B1E062B3CD8069B013B062B38D8069B15
:103E20009D423BD343461B09B3423DD32D04069B21
:103E30001E0335432368002B3CDB2A4B9C424AD0AF
:103E400080235B01284A1360284A1360284A92683D
:103E500019009143FAD12760A060221DC0239B0165
:103E6000134321221A602268002AFCDAE560082246
:103E70001A6080BCB846F0BD1E4B1F4A1F48112176
:103E8000FFF7ECFD1E4B1C4A1C481921FFF7E6FD0D
:103E90001C4B194A19481C21FFF7E0FD1A4B164A22
:103EA00016482221FFF7DAFD184B134A1348252143
:103EB000FFF7D4FD22683F231340BB42BDD1A36866
:103EC0001B051B0D8342B8D1E368EE22D2021340DA
:103ED000AB42B2D1CDE780239B01B3E780E84BD35F
:103EE00080F8A93200C0024000E0004000F000402D
:103EF00000C00040F89B0010349D0010589C00103A
:103F0000989C0010B49C0010009D0010189D00109B
:103F100080239B000343014AD36270470080054021
:103F2000024B1A68024B5A607047C046E4180020E2
:103F30000080054010B50200164B8020C0051860B7
:103F4000154B1648186000290AD0154BE021C9040A
:103F50001960002A09D1124B802212061A6010BD86
:103F60000C4BE021C9041960F3E753019B1A980038
:103F7000801800010B4B186080235B04984202D329
:103F8000084B094A1A60FFF7CBFF054B8022D20588
:103F90001A60E4E700B0054008200140FCFF010082
:103FA00000A00540E4180020FFFFFF0010B5034B00
:103FB000034ADA61FFF7BEFF10BDC046008005402E
:103FC0002131B76A10B5030010000C4A8024E405C3
:103FD0001460002B0DD001221343094A094CD4610F
:103FE000094C5C401462516293620021FFF7A2FF0A
:103FF00010BD034B0022DA61F7E7C04600B0054070
:1040000000800540D3C007B02D3FF84F064BAA22D1
:1040100012011A602F22DA60044B054A1A60024B23
:104020005B68002BFBDA70470040024000600240F2
:1040300000B0FA00704710B5002802D00B6849683C
:10404000984710BD0100002007E083001B185B00AB
:10405000501C08601078C01830380A681378303B5C
:10406000DBB2092BF1D97047F0B5DE4657464E4614
:104070004546E0B583B093461F000C9B9A460D9CC5
:104080000E9B99460F9B9B0703D0B8460F00060076
:1040900022E00192A34688464E46B9460700B44244
:1040A00007D2551C4B4641462020B84701342A0010
:1040B000F5E73D004F465C46019B9B46B1464646B0
:1040C000B84637002E0007E0013C551C5346185DEA
:1040D00043463900B0472A00002CF5D135003E0098
:1040E00047460F9B9B0707D4100003B0F0BCBB46AC
:1040F000B246A946A046F0BDB0464E46B9462F008E
:104100005D46531BB342EFD2541C4B464146202020
:10411000B8472200F5E7F0B5CE46474680B585B0F2
:10412000944698460C9D0D9C0EAB1B789946109AB0
:10413000119B129EB7071CD4002B0CD0F7070AD591
:104140004F46002F02D10C37374204D0013B02E02A
:1041500030272F550134944201D21F2CF8D9F7078C
:1041600007D59C4205D21F2C03D830272F55013488
:10417000F5E7F70615D5770505D4002C03D0944252
:1041800024D09C4222D00F9A102A2BD00F9A102AAA
:1041900030D00F9A022A35D01F2C02D830222A554F
:1041A00001341F2C05D84A46002A31D02D222A5529
:1041B0000134039602930194009543466246FFF74B
:1041C00053FF05B0C0BCB946B046F0BD621E012C1D
:1041D00006D00F9F102F01D01400D4E7023CD2E785
:1041E0001400D0E7B206D1D41F2CCFD878222A559C
:1041F0000134D1E7B206CCD51F2CCAD858222A5593
:104200000134C9E71F2CC7D860322A550134C3E7EF
:10421000720703D52B222A550134CAE73207C8D5C5
:1042200020222A550134C4E7F0B5DE4657464E46F3
:104230004546E0B593B081468A46089209931CAB87
:1042400010CB1B789B461E9D219B9846002C03D1CA
:10425000102342469A4390468023DB0046461E4088
:1042600042461A4212D0002C22D000260EE03031F5
:10427000CBB2771C0AAA93552900200000F0ECFF6E
:10428000AC4216D31F2F14D83E0004002900200092
:1042900000F0E2FFC9B20929E9D943469B0605D5DA
:1042A00041235B18DBB20A3BDBB2E2E76123F8E7AC
:1042B000270043460693209B05931F9B0493039579
:1042C0005B46029301970AAB0093099B089A5146FB
:1042D0004846FFF720FF13B0F0BCBB46B246A946E4
:1042E000A046F0BDF0B5DE4657464E464546E0B521
:1042F00095B0089009910A920B931E9E1F9C20ABCB
:104300001B789B46229B9946239D269B9A46330009
:10431000234303D1103352469A4392468023DB0055
:1043200057461F4052461A4219D0330023432DD01E
:10433000002714E03032D3B27A1C90460CAAD35531
:104340004A462B003000210000F0C8FFA5421FD8CC
:1043500019D043461F2B1BD8474606000C004A467F
:104360002B003000210000F0B9FFD2B2092AE1D9B8
:1043700053469B0605D541239B18DBB20A3BDBB2B3
:10438000DAE76123F8E7B145E3D901E00023984675
:1043900053460693259B0593249B04934B46039316
:1043A0005B460293434601930CAB00930B9B0A9A26
:1043B00009990898FFF7AFFE15B0F0BCBB46B246AE
:1043C000A946A046F0BD0000F0B5DE4657464E4671
:1043D0004546E0B591B083468A460C9298461A9CB1
:1043E00008941B9D099522002B002000290001F054
:1043F00004FA002800D0E5E001225242D74B200009
:10440000290001F0F5F9002800D0DBE0012252423A
:10441000D34B2000290001F0D5F9002800D0D1E0CD
:1044200000220023089E3000099D290001F0CAF9EE
:10443000002800D0DDE0089A099B069207938023AC
:10444000DB001E9A1A400D921E9A1A4201D10623D1
:104450001C930698079904000D000A000600024309
:1044600000D1D1E0080D4005400DBE4CA44660448B
:104470000A03120BBC4B13431F0001F0D1F9BB4AD6
:10448000BB4B01F05CF9BB4ABB4B01F031F90400B6
:104490000D000022B94B3000390001F020F9B84A74
:1044A000B84B01F04CF902000B002000290001F08C
:1044B0001FF901F0CDF9814601F0B2F904000D00B9
:1044C000B14AB24B01F03BF90022B14B01F010F9B7
:1044D00001F0BEF90600AF4AAF4B2000290001F001
:1044E0002EF904000D00300001F09AF9AB4AAC4BF4
:1044F00001F025F902000B002000290001F0EFF87F
:1045000004000D0002000B0001F019F90A900B9154
:10451000A44BF31800261F0522002B0020002900C1
:1045200001F0E6F80E900F9122002B000020802170
:10453000C90501F0D4F804000D0000229A4B0A9836
:104540000B9901F0DEF80022984B01F0D1F802003F
:104550000B000A980B9901F0D4F80022944B01F05B
:10456000C7F802000B000A980B9901F0CAF8020084
:104570000B002000290001F0BBF802000B000E9890
:104580000F9901F0BEF80022774B01F0B1F832002C
:104590003B0001F0D4F806000F0004000D00069A5D
:1045A000079B01F025F9002830D001235B429C468F
:1045B000E14400227D4B3000390001F0A2F80400F4
:1045C0000D0023E01E9B04931D9B03931C9B0293F1
:1045D000089A099B0092019343460C9A514658460B
:1045E00000F0FCF811B0F0BCBB46B246A946A046AC
:1045F000F0BD0023002406930794069680231B0633
:104600009C46654407951AE7002399464B46633359
:10461000C62B1ED804261E9B1B0526D52B00234324
:104620000FD0644A644B0698079901F0D9F8002826
:1046300079D00022614B0698079901F0C3F8002851
:1046400071D01C9B4B4506DD4A469B1A013B1C93CF
:1046500003E00526DFE700231C938023DB001E9A7E
:104660001A431E920026002399461D9B9E4264D247
:104670009F1B02231E9A1A400A921E9A134202D0CE
:10468000002E00D000274B46002B07D022002B0025
:104690000698079901F035F806900791002200234B
:1046A0000898099901F08EF8002848D1444B1E9AC9
:1046B0001340049303971C9B0293069B079C009353
:1046C000019443460C9A5146584600F087F8002E54
:1046D00000D187E71E9B9B063DD54525441C4346DC
:1046E000020051462800D8474A46D317D2185A40EC
:1046F00005230593013E0496002303930A33029396
:104700004B46DB0F01930092434622005146584628
:10471000FFF78AFD0A9B002B00D163E702005F468A
:104720000C9E1D9D54E01C9B002B9ED00D9B002BCE
:104730009BD01C9B013B1C9397E7002799E7069CA5
:10474000079D2200290080200006844661440B005A
:1047500006920793AAE76525C0E7C046FFFFEF7FF3
:10476000FFFFEFFF01FCFFFF0000F03FFB799F50D0
:104770001344D33FB3C8608B288AC63F0000F83F7C
:1047800061436F63A787D23F71A379094F930A40B2
:104790000000E03F1655B5BBB16B0240EF39FAFEA1
:1047A000422EE63FFF03000000002C4000002440A2
:1047B000000018402D431CEBE2361A3F80842E4146
:1047C000FFF7FFFF541C434651462020B847220004
:1047D000931BAB42F6D3100004E7C046F0B5DE46AB
:1047E00057464E464546E0B595B00690079193462C
:1047F0009946209F1E9A1F9B1000190000F0FDFF94
:10480000002831D101225242BF4B1E981F9900F05F
:10481000D9FF002837D101225242BC4B1E981F9964
:1048200000F0E6FF00283DD10022B94B1E981F99E9
:1048300000F0DEFF002850D10022B64B1E981F99D1
:1048400000F0C0FF002848D1002200231E981F99C5
:1048500000F0B8FF002850D100239846229B5B054A
:1048600000D4B6E0002458E0229B0393219B0293DE
:1048700003230193A84B00934B465A460799069889
:10488000FFF7F2FB0EE1229B0393219B029304238B
:104890000193A24B00934B465A4607990698FFF79F
:1048A000E3FBFFE00423229A1A4022990B4210D026
:1048B0009B4B002A0FD00422229903912199029147
:1048C000019200934B465A4607990698FFF7CCFB96
:1048D000E8E0944BEDE70322EEE7229B0493219B53
:1048E000039302971E9B1F9C009301944B465A46CC
:1048F00007990698FFF768FDD4E01E9A1F9B0020D9
:10490000002100F0ECFE1E901F9101239846A5E7C0
:104910000CAB30221A55013F01341F2C01D8092F4E
:10492000F6D81E981F9900F093FF050000F078FF5D
:1049300002000B001E981F9900F0D1FE7A4BFA007E
:104940009B181A685B680A920B9300F0F8FE0890B7
:10495000099100F0A1FF060000F05EFF02000B00CD
:104960000898099900F0BBFE0890099100226F4B4E
:1049700000F03EFF00282ED00136300000F04CFF42
:1049800002000B000A980B9900F022FF002801D0CA
:1049900001350026002F2CD1280000F041FF020035
:1049A0000B001E981F9900F09AFE06000F000022CF
:1049B0005E4B00F007FF002846D100225B4B300021
:1049C000390000F015FF00283ED1EB073CD501353A
:1049D0003AE0062746E70022544B0898099900F070
:1049E000F1FE0028D6D1002E01D0F307D2D5013632
:1049F000D0E7AA461F2C11D8013F0A21300000F051
:104A00002BFC651C30310CAB19550A21300000F02D
:104A100023FC092E0ED906002C00EBE755461F2C6F
:104A20000CD87B1E002F09D00CAA302111551F0075
:104A30000134F4E72B0055461C00F0E71F2C03D887
:104A40000CAB2E221A5501341F2C10D80A21280035
:104A500000F0DAFB661C30310CAB19550A21280036
:104A600000F0D2FB051E01D03400EDE73400032333
:104A7000229A1340012B1CD01F2C06D84346002B32
:104A800032D00CAB2D221A550134229B0393219B6B
:104A9000029301940CAB00934B465A460799069833
:104AA000FFF7E2FA15B0F0BCBB46B246A946A046F5
:104AB000F0BD219B002B13D04346002B02D10C33B9
:104AC00013420FD0219B013B2193190003E00CAB53
:104AD00030221A5501348C42CED21F2CF7D9CBE7A5
:104AE0002199F8E72199F6E7229B5B0704D50CABE7
:104AF0002B221A550134C8E7229B1B07C5D50CABE6
:104B000020221A550134C0E7FFFFEFFFFFFFEF7FC0
:104B100065CDCD4165CDCDC14C9D0010509D00109F
:104B2000409D0010489D0010F89E00100000E03FDE
:104B3000F0B5DE4657464E464546E0B593B0824650
:104B40008B4690461193002900D100E3002754467C
:104B5000119B1878002800D1FCE2252809D07D1C83
:104B600043463A005946A047119B013311932F0049
:104B7000EEE7013311930025119A11780B00203BC9
:104B8000D8B2102803D88300C248C3589F460B00F0
:104B9000303BDBB2092B2CD92A292FD000230A93D2
:104BA000119B1A782E2A39D000239946119A13782E
:104BB000683BD9B2122976D88B00B749CB589F46AB
:104BC00001231D4301321192D6E702231D43013216
:104BD0001192D1E704231D4301321192CCE708233F
:104BE0001D4301321192C7E710231D430132119278
:104BF000C2E711A8FFF726FA0A90D1E71C9B1A1DFD
:104C00001C921B68002B04DB0A93119B0133119348
:104C1000C6E7022215435B420A93F6E78022D200E0
:104C200015435A1C11925A781300303BDBB2092B02
:104C300004D92A2A07D000239946B7E711A8FFF71D
:104C400001FA8146B2E71C9B1A1D1C921B68002BBF
:104C500004DB9946119B01331193A7E70023F8E782
:104C600080235B002B43511C119152786C2A01D098
:104C70001D0018E0C0239B001D430131119112E07B
:104C800080232B43511C11915278682A01D01D00BA
:104C900009E0C0231D430131119104E080235B0032
:104CA0001D4301321192119B1878672816D82528C8
:104CB00026D30300253BDAB2422A21D89300774A53
:104CC000D3589F4680239B001D4301321192EAE78F
:104CD00080235B001D4301321192E4E778280FD84E
:104CE00069280DD30200693AD2B2012393406C4A7D
:104CF00013420FD11A0600D503E25B0500D594E1FB
:104D00007D1C43463A005946A047119B013311933D
:104D10002F001DE7782809D0622838D06F2838D0B6
:104D2000582838D010239D430A2600E01026582822
:104D300033D0692803D0642801D00C2295436A053A
:104D400001D50122954369282AD0642828D0AA05D4
:104D500000D5A7E0EA0500D5C0E06A0600D4D2E09D
:104D60001C9A111D1C911168FF220A4005950A9B8F
:104D700004934B460393029600230193009243460B
:104D80003A0059462000FFF74FFA070027E00226B5
:104D9000CDE70826CBE71026C9E720221543C8E750
:104DA000AA0520D4EA0550D46A0666D51C9A111DBE
:104DB0001C911168FF220A40D01711184140059537
:104DC0000A9B04934B4603930296D20F01920091E3
:104DD00043463A0059462000FFF726FA0700119B88
:104DE00001331193B4E61C9A073207218A4311005C
:104DF00008311C91116853689C46DB170C930D9386
:104E00000C9A0D9B100048400E90624653400F9341
:104E10000E980F990C9A0D9B801A99410E900F9144
:104E200008950A9B07934B46069304960023059327
:104E30006346DA0F02920090019143463A005946C8
:104E40002000FFF74FFA0700C9E71C9A111D1C91BB
:104E50001268D0171118414005950A9B04934B46E0
:104E600003930296D20F0192009143463A005946AD
:104E70002000FFF7D9F90700B1E72A0605D51C9AEB
:104E8000111D1C910023D25E96E71C9A111D1C91E6
:104E9000126891E7589D00109C9D0010E89D00103D
:104EA000419000001C9A073207218A431100083103
:104EB0001C9108950A9B07934B4606930496002382
:104EC00005930293536812680092019343463A0097
:104ED00059462000FFF706FA070080E71C9A111DCB
:104EE0001C9105950A9B04934B460393029600235D
:104EF00001931368009343463A0059462000FFF798
:104F000093F907006BE72A0606D51C9A111D1C9120
:104F100012681204120C29E71C9A111D1C911268C8
:104F200024E746281AD01C9B0733072293431A0014
:104F300008321C9204950A9A03924A4602921A6811
:104F40005B680092019343463A0059462000FFF700
:104F500045FC0700119B01331193F9E520231D4304
:104F6000E1E7672801D0472802D180231B011D43B8
:104F7000452801D0472801D120231D431C9B07331E
:104F8000072293431A0008321C9204950A9A03924E
:104F90004A4602921A685B680092019343463A00BF
:104FA00059462000FFF710FA0700119B01331193B7
:104FB000CEE502231A002A4092462B421FD001253B
:104FC0001C9B1A1D1C927A1C9146187843463A0085
:104FD0005946A0475346002B16D1119B013311931C
:104FE0004F46B5E5561C434659462020B8472B008E
:104FF00032005D1C9C42F5D83C001700E0E701231D
:105000003A0027000A9CF4E74A46A1460A9C06E0BB
:10501000571C434659462020C84735003A006E1CAD
:10502000AC42F5D84C469146D7E71C9B1A1D1C9202
:105030001E684B46002B00D1013B310001E00131DD
:1050400013000A78002A02D05A1E002BF7D1891BC0
:1050500010918023DB002A001A4092461D4203D0A3
:10506000494501D94B46109302231A002A400B925E
:105070002B4205D03A00574623004C46994620E083
:105080003A00109B5F46B346260006E0541C434698
:1050900039002020B0472B0022005D1C0A9999425C
:1050A000F4D834005E46BB461095574623004C4664
:1050B000994606E01C000136551C43465946C84730
:1050C0002A003078002804D0002FF4D0631E002C72
:1050D000F0D117004C460B9B002B03D1119B0133E1
:1050E000119335E50A9F109B06E0561C434659462E
:1050F0002020A0472B0032005D1C9F42F5D81700EE
:10510000ECE721232B431C9A111D1C911268059377
:10511000082304934B460393102302930023019327
:10512000009243463A0059462000FFF77DF80700F9
:10513000119B013311930BE57D1C43463A00594600
:105140002520A047119B013311932F0000E50B4B45
:105150009A46FBE4A246474502D343465A1E00E066
:105160003A00434659460020D047380013B0F0BCFF
:10517000BB46B246A946A046F0BDC0463540001029
:1051800000B585B0029003910121044800931300FB
:105190004A4202A9FFF7CCFC05B000BD3740001021
:1051A00001480421014B184720050020D15100106F
:1051B00010B5010018231B8814221088984710BDD1
:1051C00010B5010018231B8816221088984710BDBF
:1051D000F0B5C64600B507000E000025012398462D
:1051E00000E00135B5420AD2AC003C192068FFF757
:1051F000DFFF20600028F4D100239846F1E7404605
:1052000080BCB846F0BD0000124A936F9B0815D2CF
:105210009066D166002905D0FFE7FFE7FFE7516FF1
:10522000106F704704B580210906C217514000284D
:1052300000D0C84303F03CFF002104BDF0B5146E5C
:10524000556E576F166FFFF7E3FF14665566576785
:105250001667F0BD000000D0114A936F9B0813D26F
:1052600010665166002905D0FFE7FFE7FFE7516FA1
:10527000106F704704B5002801D00020C04303F030
:1052800017FF002104BDC046F0B5146E556E576F70
:10529000166FFFF7E5FF1466556657671667F0BD92
:1052A000000000D094464E4A926F9208624601D2A6
:1052B00030E0C046F0B54A4EB56F6D08FCD3346E91
:1052C000756E776F366F00F025F89446444A146681
:1052D0005566576716676246F0BDC0469446404A19
:1052E000926F9208624601D258E0C046F0B53C4E3B
:1052F000B56F6D08FCD3346E756E776F366F00F046
:105300004DF89446364A14665566576716676246E6
:10531000F0BDC046002B24DB11D000293EDA00B5D9
:10532000C943404200D1013100F038F8C94340423E
:1053300000D10131DB43524200D1013300BD002ACC
:10534000EBD1002801D1002905D00020C90FC907E1
:1053500001D1C043410800B503F0A2FE00220023A2
:1053600000BD00B500290ADBDB43524200D1013306
:1053700000F014F8C943404200D1013100BDC943D7
:10538000404200D10131DB43524200D1013300F0F1
:1053900005F8DB43524200D1013300BD002923D17F
:1053A000002B18D1002A0CD0BC460D4F38667A6607
:1053B00000210023FFE7FFE7FFE77A6F386F6746BA
:1053C0007047002801D00748010000B503F068FECF
:1053D0000022002300BD02000B00002000217047C6
:1053E000000000D0FFFFFFFF002B00D0BFE0130C38
:1053F00028D1002AE7D080B4114F39667A66FFE7DA
:10540000FFE730B4040C7B6F396F1B0423433B660A
:105410007A66FFE7FFE7FFE7C04684B27B6F3D6F28
:105420001B0423433B667A66FFE7FFE7C046002381
:105430002C042D0C7A6F386F00196941B0BC70478D
:10544000000000D0F0B594460025140E01D11202E0
:105450000835140F01D112010435940F01D19200C7
:105460000235D40F01D152000135D40B0134254F40
:105470007C66254C3C660E0C93B2FFE7FFE7FFE726
:105480003C6F6643360C7703BE467343DF0B5B0409
:10549000C01AB941130C7343DB18C91ACE0866430E
:1054A000360CB64493B273431F0F1B01C01AB941A7
:1054B000130C73431F0B1B05C01AB941860D8F02D5
:1054C0003E436643360C092D24DB520A7243801A90
:1054D0007703460A6643360C16235B1BDE40DF402B
:1054E000BF1964466643821B7046043506330100CB
:1054F000D940A840C01900D30131A24206D20023EE
:10550000F0BD0000000000D0FFFFFFFF121B0130C4
:10551000F3D3F1E709277F1BFE406446A2B2724332
:10552000801A00D20139220C7243130C1204821A21
:1055300099410B007046043513370100F940A8402B
:10554000801900D30131002B02D1A2420AD2F0BD52
:10555000013000D30131121BFAD2013BF8D1A24233
:1055600000D2F0BD013000D30131121BF7E7F0B5D6
:105570001C0C00D080E00CB400251C0A04D11B02D6
:10558000160E3343120208351C0B04D11B01160FF3
:105590003343120104359C0B04D19B00960F334317
:1055A00092000235DC0B02D192185B4101351C00E0
:1055B000971864410134464F7C66464C3C660E0C9D
:1055C000FFE7FFE7FFE7C0463C6F6643360C770313
:1055D000BE4697B27743C01B00D20139C01B00D230
:1055E00001399FB27743C91BC91B170C77437E044F
:1055F000FF0B801BB941CE086643360C0C2D33DB04
:10560000B644120B1F053A431B0B97B27743C01BDE
:1056100000D201399FB27743C91B170C77433E0470
:105620003F0C801BB941860D8F023E4366432927FC
:105630007F1BFE400C3D7746AF40BF1930BCA2B285
:10564000ABB272437343801A9941220C7243130C1C
:105650001204801A994102000B000137001BA94176
:10566000F9D2781E0021F0BD0C277F1BFE40774643
:105670007F0BAF40FF19E0E700245D1C07D0144FFB
:105680007D663966FFE7FFE7FFE7FFE73C6F95B20E
:105690009EB265436643401BB141150C1E0C654329
:1056A000664336042F0C3E432D04401BB141994202
:1056B00004D202000B0020000021F0BD01D1904275
:1056C000F7D3801A994101349942F2D3F6E70000EA
:1056D000000000D0FFFFFFFF48404140484018B4A1
:1056E0001B4B5B68FC46019308BD04DFB3590010F7
:1056F00018B4174B1B68FC46019308BD00DFBD5969
:1057000000109446134A926F920809D2624618B468
:105710000F4BDB68FC46019308BD0CDF755C001085
:105720000C4AF0B5146E556E576F166F6246FFF750
:10573000EEFF084A1466556657671667F0BD18B441
:10574000034B9B68FC46019308BD08DF195B001002
:105750001C190020000000D0FFB5504042405040CE
:1057600059404B40594000E0FFB5154F4C00640DC7
:1057700003D0BC4204D10C0314D80020090D090544
:105780005C00640D03D0BC4204D11C030AD8002283
:105790001B0D1B0501264B4009D44B4003D58B4202
:1057A00000D18242FFBD9942FCD19042FFBD0B4324
:1057B000DB1803431343F5D0C9434918FFBD00006C
:1057C000FF07000000B5FFF7CFFF804100BDC046D6
:1057D00000B5FFF7C9FF01D9002000BD012000BDC1
:1057E00000B5FFF7B9FF01D9002000BD012000BDC1
:1057F00000B5FFF7B1FF804100BD012040054A0020
:10580000121804D85A00121801D80020704701203D
:1058100070470020704700000021002805D1704724
:10582000C1174840401AFAD0C90713B5064B1B6888
:1058300098470CBC441CA2401005120B0349091BDD
:1058400009051943114310BD1C1A00201F04000054
:1058500010B54C00620D8023D218DB00D21A5B0514
:105860007E2A10DD9E3A13DACC1709034908194342
:105870005242D140640001341532202A05DAD0406A
:105880000843604310BD002010BD0846604310BDB2
:10589000C80FC018013810BD18B4044B5B6AFC4631
:1058A000019308BD24DF255E001000001C190020B4
:1058B00070B513231C78012C14D0012C14DC022C9D
:1058C00002DC1F4B1F4A93641F48FFF771FC1F4BFC
:1058D000186070BD1A491B4A9800815001331F2B74
:1058E000F8D9EAE70023FAE71948FFF769FC050051
:1058F0001848FFF765FC023803789B007F2B19DD01
:1059000010488022290000F0ABFB022CD7D1124BAB
:105910001A88B5231B029A4209D1104B1A88104BE2
:105920009A4204D10F4B1A880F4B9A42C7D00020DD
:10593000FEF72EF90D4B0E4A0E483221FEF78EF877
:10594000795900101C1900204C3300001C1A00204B
:10595000534400005346000054380000D83800007B
:10596000494600009C38000059460000489F00103E
:10597000F09F0010A89F001007B56046002800D1D6
:1059800000BE01880A0A0230DF2AFAD1C9B28208B1
:1059900004D3028840880004104300E00068024AF3
:1059A0005050039007BD00001C1900200FB403BC29
:1059B0000CBCF0B50124E407634000E0F0B50C0D29
:1059C000CF0F661E3605891B640503D3C9434042C9
:1059D00000D30131640D03D0661CF60A07D0E41B26
:1059E00000207F00791C89078912803C24031D0D4B
:1059F000DF0F6E1E36059B1B6D0503D3DB43524242
:105A000000D301336D0D03D06E1CF60A07D0ED1BD9
:105A100000227F007B1C9B079B12803D2D032F1BC8
:105A2000661B58D4A446202E46DA20371400BC400A
:105A30001D00BD40F24033412A4380185941CB0F2D
:105A400005D0C943C04300226442504151416246DF
:105A50004D0D28D10D0D07D100281FD0241940412C
:105A60004941013A0D0DF9D0640006D3013000D34D
:105A70000131002C01D140084000013A0BD4941CA4
:105A8000E40A04D112051144DB071944F0BDD9071B
:105A9000204B194300E0D9070020F0BD0029DDD1DB
:105AA000002CDBD1F0BD0132C6074008CD072843EA
:105AB0004908002EE1D0D9E73C2E29DA203E4037B4
:105AC0001400BC4000D00124F24014431A00BB4033
:105AD0001C43D317ACE7AC46202F08DA203604006D
